:020000040000FA
:10000000E0120020C9010000E501000075010000B8
:1000100000000000000000000000000000000000E0
:10002000000000000000000000000000E9010000E6
:100030000000000000000000EB010000ED010000E6
:10004000EF010000EF010000EF010000EF010000F0
:10005000893D0000EF010000EF010000EF0100000A
:1000600059500000B1500000EF010000EF01000006
:100070008552000019530000EF010000EF0100005D
:10008000EF010000EF010000EF010000EF010000B0
:10009000EF010000EF010000EF010000EF010000A0
:1000A00000000000EF010000EF010000EF01000080
:1000B00075420000E5150000EF010000B9420000A4
:1000C00000F002F800F046F80CA030C808382418F8
:1000D0002D18A246671EAB4654465D46AC4201D180
:1000E00000F038F87E460F3E0FCCB646012633426C
:1000F00000D0FB1AA246AB4633431847746D00008C
:10010000946D0000103A02D378C878C1FAD852072B
:1001100001D330C830C101D504680C6070470000BD
:100120000023002400250026103A01D378C1FBD813
:10013000520700D330C100D50B60704710B5782945
:1001400002D100F07FF810BD002010BD1FB51FBD0B
:1001500010B510BD01F0A6F91146FFF7F7FF05F045
:1001600087FA01F0BEF903B4FFF7F2FF03BC01F018
:10017000EDF9000004207146084202D0EFF3098037
:1001800001E0EFF308807146004A1047514000003B
:1001900070B505460C46164602E00FCC0FC5103E62
:1001A000102EFAD2082E02D303CC03C5083E042E2B
:1001B00007D301CC01C5361F03E021782970641CE8
:1001C0006D1C761EF9D270BD0C480D4901600D49B9
:1001D00001600D4901600D4A0D4911600021016067
:1001E0000C480047FEE7FEE7FEE7FEE7FEE7FEE716
:1001F00009480A490A4A0B4B7047000000010050A9
:100200005900000016000000880000006000005047
:10021000A55A0000C1000000E0010020E01200200B
:10022000E0090020E00900200FB4054910B503AA39
:10023000029800F0E9FF10BC08BC04B018470000A9
:100240007C00002070B504460D4621461068C0466B
:10025000C0462188090502D50F4A7A4402E00E4AB9
:100260007A440E3223460021243305E006070009B4
:10027000360F965D5E54491C0028F7D12078002384
:10028000000705D5702D03D0002901D002231132BB
:10029000204600F060FF70BDDA6A0000F3B5044646
:1002A000002081B020622046E168884700287AD08B
:1002B000252802D06268A16871E0E1682046002527
:1002C000884706460020E0610746A0612A2E0AD032
:1002D000304605F077F9002827D0B8000019303EE5
:1002E0000090866119E00298BA00121902C8916163
:1002F00002902046E1688847012F064617D1E06941
:1003000000281FDA202085431CE000980A2180691C
:10031000484300998019303888612046E168884751
:10032000064605F04FF90028EFD1012F0AD02E2EF6
:1003300008D12046E16888470646202005437F1CF7
:10034000022FC3DBA069002803DA4042A06101202C
:100350000543E80701D010208543002E23D0304606
:100360004138192803D80120C00205432036204611
:1003700025603146029A1546FFF7E0FE00280BD0B3
:10038000012806D0ED1DE808C000083002908AE779
:1003900009E02D1D029586E762683046A168904706
:1003A000206A401C7EE7206AFEBD01E004C0091FF0
:1003B0000429FBD28B0701D50280801CC90700D01D
:1003C0000270704700290BD0C30702D00270401C96
:1003D000491E022904D3830702D50280801C891E8E
:1003E000E3E70022EEE70022DFE70000F8B507466A
:1003F0000B4639461943890713D1164CE601042AE6
:100400000FD302CB0D1B8D43354202D102C0121F08
:10041000F5E7CBB20370401C521E002B13D0090A23
:10042000F7E7002A14D01978521E5B1C0170401C9B
:10043000002908D0002A0BD01978521E5B1C0170CD
:10044000401C0029EDD1002A02D01146FFF7C9FF58
:100450003846F8BD01010101002203098B422CD36B
:10046000030A8B4211D300239C464EE003460B4304
:100470003CD4002243088B4231D303098B421CD366
:10048000030A8B4201D394463FE0C3098B4201D358
:10049000CB01C01A524183098B4201D38B01C01A90
:1004A000524143098B4201D34B01C01A5241030907
:1004B0008B4201D30B01C01A5241C3088B4201D3B6
:1004C000CB00C01A524183088B4201D38B00C01A63
:1004D000524143088B4201D34B00C01A5241411A8A
:1004E00000D201465241104670475DE0CA0F00D06D
:1004F0004942031000D34042534000229C46030966
:100500008B422DD3030A8B4212D3FC22890112BAEB
:10051000030A8B420CD3890192118B4208D38901C3
:1005200092118B4204D389013AD0921100E08909DB
:10053000C3098B4201D3CB01C01A524183098B42BC
:1005400001D38B01C01A524143098B4201D34B01A5
:10055000C01A524103098B4201D30B01C01A524108
:10056000C3088B4201D3CB00C01A524183088B428F
:1005700001D38B00C01A5241D9D243088B4201D318
:100580004B00C01A5241411A00D201466346524103
:100590005B10104601D34042002B00D54942704702
:1005A00063465B1000D3404201B50020C046C04600
:1005B00002BD7047704770470246C80FC0078143AD
:1005C0004B0030B54B405B009B0D20D01923DB0660
:1005D000C91801231B05994220DB0324A407042525
:1005E0001346AB400BD3002B04D1EB0613409B000A
:1005F000E34204D401246407002312195941FF2364
:100600001B0599420BD2C9000143500F09E0CB02F0
:1006100004D501430803024305D0054830BDFF213E
:10062000C905084330BD084607210905884330BD88
:100630000000C07FF0B50C46871A9C410D46861A13
:100640009D4103D2C01BA141D21963410D0D1F0D65
:10065000C94EEC1BAE435CD07F057F0D0026002FFA
:1006600051D02D05AC46A943DD020123ED0A1B053F
:100670001D4320231B1B24D41746E7403818714123
:100680002F46E740CC199D402818314661410C0D9A
:1006900027D161449A4013D50023401C5941520090
:1006A0000ED14008400001224B005205D34207D32F
:1006B00005204007C14201D5B04900E0B0493046AD
:1006C000F0BD6B00002A00D001229A181F23203CA5
:1006D0001B1B01D5002302E0E540281871410C0DD9
:1006E000D7D0012424050919C407CD0740084908BB
:1006F000E40F28436144002CD5D00024401C614104
:100700009A40D0D1CDE76A05520DD9D1C90FC9079A
:10071000D5E79C4D4E00002801D0012400E00024C4
:1007200034195F00002A01D0012600E00026BE191E
:10073000954FAC420CD8AE420AD8B44206D001253F
:100740006D05EC42BCD010461946F0BD9942FCD074
:1007500000203946F0BDF0B51FB40C460F46811A93
:100760009F412546861A9D4106D20125ED076F401F
:10077000401ABC4152187B41210D1E0D8D1BAC4609
:100780007D4D8D437ED075056D0D7CD00D05AE463B
:10079000AC431B031B0B794D52429D4120236646FF
:1007A0009B1B14D31746F74038180026009074415D
:1007B00060462F460741E41900989D40281866417D
:1007C00016D4714671189A4025D5012320E093185C
:1007D0002A466A415200002B00D0521C1E23203EA4
:1007E0009B1B002B61DD3541EE1728186641E8D5CB
:1007F000001876415B1C9A4000D3401C4B05F3184F
:100800001524E34010D3002B52D071467118D30F3A
:10081000C01802D3491C05B0F0BD0123DB079A4282
:10082000F9D140084000F6E701225205B21801D183
:10083000002853D00123CC0ADB029943891E002AE9
:1008400008D1020C03D0020C0004103902E0024669
:10085000002020390023550B05D112020823550B27
:1008600001D152010D23550C01D112011B1DD50CD4
:1008700001D192009B1C150D01D152005B1C20255B
:10088000EE1A01E02CE022E00546F54015439840C1
:10089000CA1AE10769181305C918002ABBDA032030
:1008A00040070818C10FC9070FE071466118B2E789
:1008B000F10740080843711071444A000CD001232D
:1008C0005B059A42A7D2C90FC9070020A3E74905D3
:1008D000490D26D1002001E00028F4D100219AE73B
:1008E000284D6600002801D0012100E00021711888
:1008F0005F00002A01D0012600E00026BE19224F29
:10090000A94210D8AE420ED8B14208D001256D05DB
:10091000E94206D01946A802414010467BE79C42B6
:1009200001D0214677E70020394674E710B50C4620
:100930005C4005D50124E4076340FFF70CFF10BDC0
:10094000FFF778FE10BD30B40C465C4004D501249E
:10095000E407634030BC6DE630BCFCE670B50124B2
:10096000E40761400D465D4002D4FFF763FE70BDB1
:100970006340FFF7F0FE70BDFF0700000000F0FFCE
:100980000000F07F0000E0FF0000F87FF0B5F94DB7
:100990000C091E092C402E402F468BB0A7437DD05A
:1009A000B543FCD0002E7AD0002CFCD00D465D4023
:1009B000ED0F2543AC1BFF25AD0464190894C50257
:1009C000440DC9022143500DDC0204430120C0073D
:1009D00001430443D2020191200C110C00958C4676
:1009E000010423468B430A9161460904E24D8A4380
:1009F0000991010A7D4449198039097805464D431A
:100A000001266D18F605751B6943C90C640B891C1A
:100A10004C436418B5012C1B250C2E04B4434C43E5
:100A20004D43210C691889090591009DE90701D002
:100A30000121C90704912C4601996708CD072F436E
:100A40004C08059DE10B4D432D0C29466646754328
:100A500002950D4645432E46029D7D1BB4410095EF
:100A60000D465D4301942C0C2F040D465543AE46B4
:100A70002D0C3D43029503947546049C2D04641B84
:100A8000049406D2029C039D641C002675410395C4
:100A9000029401AC70CC009F7D1B01E03EE162E15D
:100AA000B44109040095079101940599A408614394
:100AB000090C0C464443650BE7040C466646744338
:100AC000A646640B3C43039502947446049DE404DB
:100AD0002C1B049406D2029C039D641C00267541C5
:100AE0000395029401AC70CC009F7D1BB44101942E
:100AF0000C465C430095650FE7000C465443A64640
:100B0000640F3C43039502947446049DE4002C1B3F
:100B1000049406D2029C039D641C00267541039533
:100B2000029401AC70CC009F7D1BB441AE09AF06AE
:100B3000049DC900AD092F43049DA406AD0604958C
:100B4000079D344369180791059DE10B4D432D0C1A
:100B500029466646754302950D4645432E46029D3D
:100B60007D1BB44100950D465D4301942C0C2F0470
:100B70000D465543AE462D0C3D43029503947546F4
:100B8000049C2D04641B049406D2029C039D641CE7
:100B9000002675410395029401AC70CC009F7D1B2B
:100BA000B44101948C050694079C890A611800954C
:100BB0000791019C0599A4086143090C0D46454322
:100BC000680BEF040D46644665436C0B3C43049F81
:100BD000ED047D1BAC4602D20025641C6841009EDA
:100BE000019D371B85410846584301950C46460F29
:100BF000C5005443600F28436546E4002C1B02D215
:100C00000025401C6E41019D3F1AB5412846BD0993
:100C1000800628438446A009BF064E020699A40612
:100C200076180743079D002068410A9907901943E9
:100C30000020099B00906046FF1913434041E20FDA
:100C400064003A43A4460446D71A8C41A04203D913
:100C50000120009020463A46C70F94184041624652
:100C6000D20F2243644664000494009CBE46640094
:100C7000D71AA446044602978C417746002F01D12B
:100C8000A04204D96046401C8446029A2046C40F04
:100C9000A64694184041049A0546D20F2243644662
:100CA0006400D31A8D417146002901D1A84202D9AE
:100CB00028461A46641C10430122002800D016431F
:100CC00061020020079B891904465C410223002C25
:100CD00002DB491813466441089DCE0A2D145D19A4
:100CE0004B056705E10A2C050D1908993E43C90714
:100CF0006940002B08D0934006D30022761C514156
:100D0000002B01D1760876001C4A002D43DB1542EA
:100D100041D0AA433FD030460BB0F0BD06180D4677
:100D20004D41174C7642AC411AD395181C465C4194
:100D3000134A6D42A24113D3012252054C00D44202
:100D40000AD15C00D4420BD04B4002D59202114331
:100D5000E2E749004908DFE75940C90FC90718E031
:100D600000200849D8E7054801420DD10342F7D0D9
:100D7000F2E700000000FF07686300000000F07F5A
:100D80000000E0FF0000F87F114859400143C01205
:100D900041400020C0E70123089A9B069A4205DCE7
:100DA000032252078918C90FC907B5E70522520760
:100DB0008918074A1143D2125140ADE770B5154664
:100DC0001C4602460B4628462146FFF7DFFD70BD54
:100DD000FFFFFF7F0346CA02400D10B510430A15FE
:100DE00004D00124E4072043002A05DB0A4CA21AA0
:100DF00004D4D040FF2A00DD002010BD4A00002BA3
:100E000001D0012000E00020101801225205D0423C
:100E1000F2D8C817C04310BD1E0400001F22030CE7
:100E200002D10F22000402D0030E03D004E0002000
:100E3000014670470002083A030F01D10001121F5A
:100E4000830F01D18000921E002801DB4000521E5A
:100E5000120551184205C012411810467047C10FC3
:100E6000C90700D04042012292071143D6E7012171
:100E70008907D3E7F0B58B4C0F09254689B0BD43F0
:100E80007BD01D092646AE43FAD00E465E40274071
:100E9000F60F3E43254071D024012142FBD0FF24B0
:100EA000AD19A4042D1B039501252D05DB02DB0ADA
:100EB000C9022B43C90A29431E010901040F130F5C
:100EC000050121431701880B820391432D098C46AC
:100ED000A90B1E438A039543B30B9A0396433F091C
:100EE000BA0B9403A74302962E467E430497B64658
:100EF0004E19D7190C460196544305977E43371B6C
:100F00007646BF1B3601B646BE0B361900967646AE
:100F1000BC043719009C01D3641C00946400002FAA
:100F200001D001263443029E049F754366467E43EA
:100F30000496760034196E0034190094029C019EC8
:100F40001C196643751BAE46069465464519059CFB
:100F500005956C43594375460891691A0191049EA1
:100F600001465143A41B0491611A009C0791E106BC
:100F700005D061090122114302E072E06EE06109CF
:100F8000089D00272C0A2D066918049D7C412A0A19
:100F90002D066918019D6241AC0DAD026D185441DA
:100FA000079A910D920255196141029A644658437D
:100FB0005443069B059A5A43121A131B9A0E9B011F
:100FC0005B187A41010B0005C3185141220A200623
:100FD00044195A419A4200D2491C012040028142E0
:100FE00003D315230226F64302E014230326F64317
:100FF0002020C51AA9401746AF40DA400A432046D0
:101000000399D8400914731819055118039A3843E5
:10101000D2075140AC4009D00122944006D30022AF
:10102000401C5141002C01D1400840001E4A93420F
:1010300012D3012203989206904207DB0520400755
:1010400009181A480143C012414004E00320400738
:101050000818C10FC907002009B0F0BD0020F10732
:10106000FAE705180C464C4111486D42A04115D3D2
:1010700094181A465A410E48644290410ED30120FA
:101080004A004005824209D35A00824206D35940A1
:10109000C90F084AC90700201143DDE700200649AF
:1010A000DAE700000000FF07FE070000FFFFFF7FF8
:1010B0000000E0FF0000F07F0000F87F0121C9057B
:1010C0000123411842001B06D3185B0E0AD0C11041
:1010D0000722D206891840075242D14201D5520058
:1010E00089187047090208D50146002A03D0C10FAC
:1010F000C9070020704710467047420202D0002006
:1011000002497047072109050143F4E70000F87F11
:101110000102C21504D00123DB071943002A0ADBB0
:101120009E239A1A02D40846D0407047FF224100FD
:101130001206914201D900207047C017C043704782
:1011400010B500F0EDF8006810BD10B5044600F0D1
:10115000E7F8046010BDFFB504460D4681B02430A9
:1011600000902168880604D51022E069914321602F
:1011700000E00120A84201DD471B00E000270498A1
:10118000A1697A191018081AA0612078C00602D443
:101190002046C046C046002608E003986268A16861
:1011A000805D9047206A401C761C2062049886422D
:1011B000F3DB2078C0060AD52046C046C04606E0CC
:1011C0006268A16830209047206A401C206238463F
:1011D0007F1E0028F4DC07E000986268A168405D8B
:1011E0009047206A401C206228466D1E0028F3DCD0
:1011F0002046C046C0462078000602D5022005B031
:10120000F0BD0120FBE70000084B70B50D467B44A4
:1012100000F08FF80446284604F01EFA002802D099
:101220000020C04370BD204670BD00004F44000048
:10123000F8B5224C4E00069DA6420AD8A64201D11E
:10124000002806D15E00A64203D8A6420AD1002A91
:1012500008D00D24240425422CD02946002000F07B
:101260007BF8F8BD0C461C430CD4994202D0EFF336
:101270000080F8BD904202D0EFF30080F8BDEFF39C
:101280000080F8BD09242407E5008B4206D0EFF367
:101290000080A043591A06D2284304E0101A05D34F
:1012A000EFF30080A04380F30088F8BDEFF30080E7
:1012B000A043F1E7009500F067F8F8BD0000E0FFFB
:1012C00070B505464800440D124B0020002C0AD092
:1012D000634008D09A4206DA6642B24203DD120544
:1012E0004019514170BD002C08D0002B09D0C90F06
:1012F000C907002AF6DB084A114370BDC90FC907A8
:1013000070BD28460A03104302D00020034970BD77
:10131000284670BDFF0700000000F07F0000F87F46
:10132000004870478001002001694A1C026108786A
:10133000704700B58FB002910021059105490193D6
:1013400079440391114604906846FEF7A7FF0FB059
:1013500000BD0000E5FFFFFFCA0211D54A03520F8E
:10136000002A04D0C803C043012188407047054AC1
:10137000EFF3008108010009104380F300887047F3
:10138000002070470000003010B500200249029A8A
:1013900000F0ADF810BD00000000F87FF0B53D4B47
:1013A00002460C461C400020002C63D03A4D8B4373
:1013B00066D000296BDB0B0D1D05A94301252D050A
:1013C00029430124FD33E34001D392184941FF33FF
:1013D00081339C468B02940D0121234389074C42A3
:1013E000920200271B198C105D1A04D42D1B02D405
:1013F0002B466500491992185B416408F4D15C1AC8
:1014000008D40125ED07EE175519744102D42A4678
:101410002346491C94185B41012292071D46E61B96
:101420008D4106D4B61A854103D42B465500344667
:101430007F1924195B415208802AEFD1234300D041
:10144000022338460A22D04001D3012213438A05E1
:1014500010436246890A12058918002B09D001221F
:10146000D34002D30022401C5141002B01D140083F
:101470004000F0BD0B03134307D0C90FC907F0BDEF
:101480000803104303D1002901DB1046F0BD002002
:101490002946F0BD0000F07F0000F87F004870474B
:1014A000800100207546FFF7F9FFAE46050069464A
:1014B0005346C008C000854618B020B5FEF798FE18
:1014C00060BC00274908B6460026C0C5C0C5C0C5D7
:1014D000C0C5C0C5C0C5C0C5C0C5403D49008D46DA
:1014E00070470446C046C0462046FEF73CFE10B595
:1014F0000C461107090F092904D00A290AD0082926
:101500000CD104E011460820FFF726FF06E0510643
:1015100006D501E0510601D50120C007214610BDC6
:10152000D10607D501010909CC084907000E0006BC
:10153000044309E0410F20024907000A0143200E3D
:1015400000061D22D14101430846E7E70149182062
:10155000ABBEFEE72600020070470000CA07D20FAC
:10156000002A05D00D4A926802239A430B4B9A60D9
:1015700002220A40002A05D0084A126902239A432F
:10158000064B1A6104220A40002A05D0034A526918
:1015900002239A43014B5A617047000040000E40FD
:1015A000CA07D20F002A05D00D4A926802231A43B7
:1015B0000B4B9A6002220A40002A05D0084A1269A1
:1015C00002231A43064B1A6104220A40002A05D05E
:1015D000034A526902231A43014B5A6170470000C3
:1015E00040000E4008498969C807C00F002802D092
:1015F0000121064A117004498969C908C9000143DB
:10160000014A91617047000040000E4062000020D6
:1016100010B53E2308220021174800F031F8164883
:1016200040308068032109048843134940318860B1
:1016300000BF08468068012108430F494031886097
:1016400000BF0D484030806901210904084000288E
:10165000F7D009484030406AC007C00F0028F0D0DA
:1016600000BF01210448FFF79BFF1D20012181409D
:10167000024A116000BF10BD00000E4000E100E012
:1016800030B504460C4880680125AD02A8430843E4
:10169000094DA860284680680C25A8431043064DD4
:1016A000A8602846806803252D04A843024DA86041
:1016B0002846C36030BD000040000E4001B59CB01C
:1016C000142117A8FEF78FFE142112A8FEF78BFE37
:1016D0000120FE494862FE494861FC494031C86228
:1016E00088624862FF20F53000F08AFD0121F94848
:1016F000FFF756FFF748403080680121C9020843D0
:10170000F4494031886000BFF34800780028FBD0DE
:101710000020F1490870119044E00121ED48FFF7E5
:101720003FFFEC48403080680121C9020843E94985
:101730004031886000BFE84800780028FBD00021D5
:10174000E5480170E348179940690005000D091844
:101750001791E049189809690905090D4118189170
:10176000DC481999C0680005000D09181991D9497C
:101770001A9889680905090D41181A91D5481B99CD
:1017800040680005000D09181B91D2484030806860
:101790000121C9028843CF49403188601198401C1B
:1017A000C1B2119111980A28B7DB179908460B911D
:1017B000FFF75DFBC94ACA4B0D910C90FFF75AFB2E
:1017C0000022C84B0F910E90FFF7E0F81191109096
:1017D000FEF7F2FE1290189908460B91FFF747FBAF
:1017E000BE4ABF4B0D910C90FFF744FB0022BD4B4E
:1017F0000F910E90FFF7CAF811911090FEF7DCFEE2
:101800001390199908460B91FFF731FBB34AB44B7B
:101810000D910C90FFF72EFB0022B24B0F910E9012
:10182000FFF7B4F811911090FEF7C6FE14901A99C4
:1018300008460B91FFF71BFBA84AA94B0D910C9092
:10184000FFF718FB0022A74B0F910E90FFF79EF8B1
:1018500011911090FEF7B0FE15901B9908460B9160
:10186000FFF705FB9D4A9E4B0D910C90FFF702FB85
:1018700000229C4B0F910E90FFF788F81191109069
:10188000FEF79AFE1690129910919749109805F05C
:10189000B3F91190FFF73CFC1C990860934800785D
:1018A000FF2877D091484078FF2873D08F48407840
:1018B0000190FFF7DCFA00228D4B03910290FFF7B5
:1018C00065F800228B4B05910490FFF7D3FA09913C
:1018D0000890139908460591FFF7F0FB07910690D1
:1018E000099B089A03F0FCFF0D910C907F4800784B
:1018F0000990FFF7BCFA0B910A900D9B0C9AFFF729
:10190000B9FA00227C4B0F910E9005F00FF901D22D
:10191000012000E00020002802D00020014631E034
:10192000724840780190FFF7A2FA0022704B0391B1
:101930000290FFF72BF800226E4B05910490FFF701
:1019400099FA09910890139908460591FFF7B6FB9B
:1019500007910690099B089A03F0C2FF0D910C9025
:101960006248017808460991FFF781FA0B910A90C5
:101970000D9B0C9AFFF77EFA00225F4B0F910E90A1
:10198000FEF7E1FF11911090FFF724FA1C994860CF
:101990003FE0FFE7139908460991FFF78FFB4F4A95
:1019A0005242564B0B910A9003F09AFF0022544B7F
:1019B0000D910C90FFF75EFA00224F4B0F910E90A5
:1019C00005F0B4F801D2012000E00020002802D088
:1019D0000020014617E0139908460991FFF76EFBB6
:1019E0003E4A5242454B0B910A9003F079FF002288
:1019F000434B0D910C90FFF73DFA00223E4B0F91A7
:101A00000E90FEF7A0FF11911090FFF7E3F91C99DB
:101A1000486036488078FF2874D03448C078FF2862
:101A200070D03248C0780190FFF721FA0022304B85
:101A300003910290FEF7AAFF00222E4B059104901D
:101A4000FFF718FA0991089014980590FFF736FBF4
:101A500007910690099B089A03F042FF0D910C90A4
:101A6000224880780990FFF702FA0B910A900D9BAB
:101A70000C9AFFF7FFF900221F4B0F910E9005F013
:101A800055F801D2012000E00020002802D00020FB
:101A900001464FE01548C0780190FFF7E8F90022B1
:101AA000134B03910290FEF771FF0022114B059139
:101AB0000490FFF7DFF90991089014990846059101
:101AC000FFF7FCFA07910690099B1CE000420050CA
:101AD0000043005000000E4062000020666666660B
:101AE00066660A400000E4400000FA4474000020EA
:101AF000000024400000F0BF000038409999F1BF79
:101B0000000044401DE0089A03F0EAFE0D910C909D
:101B1000E348817808460991FFF7A9F90B910A90EB
:101B20000D9B0C9AFFF7A6F90022DE4B0F910E9049
:101B3000FEF709FF11911090FFF74CF91C9988608E
:101B40003CE0149908460991FFF7B8FAD64AD74BFA
:101B50000B910A9003F0C4FE0022D54B0D910C901E
:101B6000FFF788F90022CF4B0F910E9004F0DEFFB3
:101B700001D2012000E00020002802D00020014610
:101B800016E0149908460991FFF798FAC64AC74B20
:101B90000B910A9003F0A4FE0022C54B0D910C900E
:101BA000FFF768F90022BF4B0F910E90FEF7CBFEB6
:101BB00011911090FFF70EF91C998860B8480079D0
:101BC000FF2877D0B6484079FF2873D0B4484079D1
:101BD0000190FFF74CF90022B64B03910290FEF7FB
:101BE000D5FE0022B44B05910490FFF743F909910B
:101BF0000890159908460591FFF760FA079106903D
:101C0000099B089A03F06CFE0D910C90A448017991
:101C100008460991FFF72BF90B910A900D9B0C9A3E
:101C2000FFF728F900229F4B0F910E9004F07EFFE2
:101C300001D2012000E00020002802D0002001464F
:101C400030E0974840790190FFF711F90022994B55
:101C500003910290FEF79AFE0022974B05910490A3
:101C6000FFF708F909910890159908460591FFF7C3
:101C700025FA07910690099B089A03F031FE0D9111
:101C80000C90874800790990FFF7F1F80B910A90C2
:101C90000D9B0C9AFFF7EEF80022824B0F910E90ED
:101CA000FEF751FE11911090FFF794F81C99C8604F
:101CB00037E0FFE7159908460991FFF7FFF97F4ADA
:101CC0007F4B0B910A9003F00BFE7E4A7E4B0D91E9
:101CD0000C90FFF7CFF80F910E90FFF77BF81828C4
:101CE00002D20020014616E0159908460991FFF737
:101CF000E5F9724A724B0B910A9003F0F1FD714ABB
:101D0000714B0D910C90FFF7B5F80022654B0F91C8
:101D10000E90FEF718FE11911090FFF75BF81C99DA
:101D2000C8605F480078FF2876D05D484078FF287B
:101D300072D05B48C0790190FFF799F800225D4BA3
:101D400003910290FEF722FE00225B4B0591049066
:101D5000FFF790F809910890169908460591FFF74A
:101D6000ADF907910690099B089A03F0B9FD0D9112
:101D70000C904B4880790990FFF779F80B910A9005
:101D80000D9B0C9AFFF776F80022464B0F910E90B0
:101D900004F0CCFE01D2012000E00020002802D097
:101DA0000020014630E03E48C0790190FFF75FF81F
:101DB0000022404B03910290FEF7E8FD00223E4BCB
:101DC00005910490FFF756F8099108901699084676
:101DD0000591FFF773F907910690099B089A03F0A4
:101DE0007FFD0D910C902E4880790990FFF73FF808
:101DF0000B910A900D9B0C9AFFF73CF80022294B9F
:101E00000F910E90FEF79FFD11911090FEF7E2FFEB
:101E10001C99086137E0FFE7169908460991FFF71A
:101E20004DF9214A214B0B910A9003F059FD0022F4
:101E30001F4B0D910C90FFF71DF80F910E90FEF7C0
:101E4000C9FF182802D20020014616E0169908465C
:101E50000991FFF733F9144A144B0B910A9003F0E0
:101E60003FFD0022124B0D910C90FFF703F800226A
:101E70000C4B0F910E90FEF766FD11911090FEF73E
:101E8000A9FF1C9908610020104948621049486167
:101E90000E494031C862886248621DB000BD000032
:101EA00074000020000038409A9999999999F1BFDF
:101EB00000004440000024400000F0BFD122DBF9C4
:101EC0007E6AF8BF6DE7FBA9F1E24940004200508D
:101ED0000043005010B50D2002F0AEF9002404E0DC
:101EE000002007490855601CC4B2192CF8DB0D20EE
:101EF00002F0B6F9002002498876487610BD00004D
:101F00003C0000202B48807F01280BD12949C8774D
:101F10000846808B32284BDD00208883887701209B
:101F2000887645E02348C07F012841D1002021491F
:101F3000C8770846407E042816DB084600782B2820
:101F400007D108464078572803D1084680784128B1
:101F500007D0184800784F2806D1164840784B28FB
:101F600002D10120144908701248407E02281FDB6C
:101F70001048407E801E0F49085C1D2808D1084685
:101F8000407E401E085C0D2802D101200B490870DC
:101F90000848407E801E0749085C0D2808D1084685
:101FA000407E401E085C0A2802D1012004490870C6
:101FB000704700003C0000201400002016000020A4
:101FC0001500002070B504460D462A4621460248F9
:101FD00003F010FA70BD000000001540C10F890029
:101FE000064A89184968C306DB0E01229A4011434C
:101FF000C20F9200014BD21851607047000200508E
:1020000010B504461048006820430F490860E007F7
:10201000C00F002802D0012000F0DEF8022020408E
:10202000002802D0022000F0D7F804202040002829
:1020300002D0102000F0D0F808202040002802D064
:10204000082000F0C9F810BD0002005010B502F0E1
:1020500079FF0148006810BD00000020FEB5002097
:1020600002901C48456AC0012840002801D0002089
:10207000FEBD012040042840002801D0164F00E09A
:10208000154F012000032840002801D0022000E065
:1020900001200190032000022840060A002E01D1F1
:1020A000022408E0012E01D1042404E0022E01D113
:1020B000082400E01024A906890E2031794308463F
:1020C0002146FEF7C9F900900199FEF7C5F9029083
:1020D0000298CDE700020050001BB70070B504461F
:1020E0000D461648C068102108400646134800688F
:1020F0000421084311490860102000F06DF80F48D2
:102100000069C008C000C01D0C4908610846C069CC
:10211000000900012843C86108460069C008C000E2
:102120002043086102F00EFF002E05D1034800682D
:10213000102188430149086070BD00000002005072
:10214000F0B50B460021002400258603360E002E34
:102150000FD00603B60FB600114FF5192968860394
:10216000370E8605F60EB7400E46BE43164331467F
:102170002960C600360F002E10D04600B60FB600FC
:10218000074F0C3FF4192168C600370FC601F60E41
:10219000B7400E46BE431E4331462160F0BD0000ED
:1021A0001C0200500A49096841430A4A5161002152
:1021B00091610521116100BF0649096901221204DC
:1021C00011400029F8D00021024A11617047000037
:1021D0000400002000E000E00146074A05E0104648
:1021E000521E002801DC002070470448C0680840E7
:1021F0008842F4D10120F7E760EA000000020050B5
:1022000010B504467D21C90061430846FFF7CAFFA7
:1022100010BD000001B5BEB0FE48407E401EFD4925
:10222000085C0D2805D10846407E801E085C1D28EC
:1022300001D003F0E9F93E980078302801D101F08F
:10224000D7F91CDC14287DD00ADC012836D00228FE
:1022500079D0032878D0112801D001F074FD08E16D
:10226000162801D101F030F9172801D101F061F9E8
:10227000182801D101F0BAF91928EED1FDE351284F
:1022800001D101F0FCFB0EDC312801D101F0D9FABB
:10229000322801D101F011FB412801D101F053FB9B
:1022A0005028DAD1EAE3522801D101F01AFC532870
:1022B00001D101F02DFC6028CFD1F2E300203B904A
:1022C0003C903D9039903A90D24840783890D1482F
:1022D0004078042803DCCF484078012802DA03F074
:1022E00093F9BAE704F072FB3BA801F0C7FE0121A5
:1022F00038A8017138994171389840003BA9085AB3
:1023000064213790FEF7B2F83030C1B238A881713D
:102310002E21C171389840003BA9085A642136909B
:10232000FEF7A4F837910A213798FEF79FF830306E
:10233000C1B238A80172389840003BA9085A0A2156
:10234000379002E0F1E31CE05BE0FEF78FF83031FC
:1023500038A84172562181722421C1727D20C000AB
:10236000FFF74EFF082139A8FFF72CFEFF20F530BC
:10237000FFF746FFA748006A3790804703F02AF925
:102380006BE700203D903C90A24800791D2803D1C6
:10239000A04840790D2810D000203D9007E0002192
:1023A0009C4A3D9811543D98401CC0B23D903D98C8
:1023B0001928F4DB03F028F94FE704F007FB7D2030
:1023C000C000FFF71DFF9348401C04F043F80020B5
:1023D0003D9007E000218F4A3D9811543D98401CE4
:1023E000C0B23D903D981928F4DB022138A8017451
:1023F0002421417402213CA8FFF7E4FD03F0EAF830
:102400002BE700203D903C90824840781D2803D166
:10241000804880780D2810D000203D9007E00021F2
:102420007C4A3D9811543D98401CC0B23D903D9867
:102430001928F4DB03F0E8F80FE704F0C7FA7D2071
:10244000C000FFF7DDFE012073494862734948610F
:1024500071494031C86288624862032138A801741A
:102460002421417402213CA8FFF7ACFD03F0B2F82F
:10247000F3E6684840783D9069A000683C900020F1
:102480003B903A9039903D98102802DC3D98012805
:1024900002DA03F0B9F8E0E604F098FA3D98401E3D
:1024A0002E90C017810F2E9808188005000E2D90D1
:1024B00003F04EFFFF20F530FFF7A2FE3D98401ECF
:1024C000C0B22E9004F090FA6420FFF799FE5548B0
:1024D000006A2E9080470A20FFF792FE04213CA854
:1024E00002F0BCFCFF20F530FFF78AFE00203B9095
:1024F00032E002F055F84B48807E012825D149484A
:10250000407E0C2802D100203B9029E04548407EC7
:102510000D281AD143488078062815D14148C07843
:10252000822811D100202E900BE02E98401D3D49AD
:10253000095C2E98001D3B4A11542E98401CC0B2D5
:102540002E902E980728F0DB0AE03B98401C80B2C2
:102550003B900220FFF754FE33493B988842C8DB8A
:1025600000BF3D98401E2E90C017810F2E9808186E
:102570008005000E2D9003F0CFFE002035903690A0
:10258000379038902948006834900A213D98FDF72B
:102590006DFF3030C1B230A841740A213D98FDF77B
:1025A00065FF303130A8817414222049091D2FA8FD
:1025B000FDF7EEFD3D98022808D03D98062805D08D
:1025C0003D98092802D03D980D2834D13D98022825
:1025D00002D101203A9010E03D98062802D1022055
:1025E0003A900AE03D98092802D103203A9004E08D
:1025F0003D980D2801D104203A902FA8FFF75EF8EE
:102600003A9880002FA90858232814D9FF212D318A
:102610003A980DE03C00002000420050004300507A
:102620008006027818000020B80B0000A86C00009B
:1026300080002FAA1150F748C0792E287DD1F54887
:1026400000793038F4494143F24840793038F34A50
:1026500050430918EF48807930387D22D20050432A
:102660000918EC48007A3038642250430918E948C8
:10267000407A30380A2250430818E649897A4018CF
:10268000303839903D98401E4000E549085C2B28C1
:1026900061D13D98401E4000401C095C39980818E3
:1026A000399039980F2805D93998322802D23998AB
:1026B0000A383990399828280AD23A9881002FA8E8
:1026C0004058242804D23A9881002FA840583990C5
:1026D000D1493998FDF7C0FE3030CE490871CE4956
:1026E0003998FDF7B9FE2E91CC492E98FDF7B4FE2E
:1026F0003030C8494871C9493998FDF7ADFE2E916F
:102700007D21C9002E98FDF7A7FE3030C1498871A0
:102710007D21C9003998FDF79FFE2E9164212E98E6
:10272000FDF79AFE3030BB49087264213998FDF7F5
:1027300093FE2E910A212E9800E0E9E0FDF78CFE31
:102740003030B44948720A213998FDF785FE30319E
:10275000B0488172E6E13D98401E4000B049085CF7
:102760002D2876D13D98401E4000401C095C3998C8
:10277000814264D83D98401E4000401CA849095C35
:102780003998401A399039980F2805D93998322844
:1027900002D239980A383990399828280ED23A98B6
:1027A00080002FA90858002808D03A9880000858BF
:1027B000242803D23A9880000858399096493998CD
:1027C000FDF74AFE30309349087193493998FDF777
:1027D00043FE2E9191492E98FDF73EFE30308D49F3
:1027E00048718E493998FDF737FE2E917D21C90039
:1027F0002E98FDF731FE3030864988717D21C90061
:102800003998FDF729FE2E9164212E98FDF724FEBC
:1028100030308049087264213998FDF71DFE2E91F1
:102820000A212E98FDF718FE30307A4948720A21A5
:102830003998FDF711FE30317648817272E179A046
:102840002E9007227348001D2E99FDF7CFFD69E1F8
:10285000FFE739980F2805D93998322802D23998DC
:102860000A3839903998282810D23A9880002FA930
:10287000085800280AD03A9881002FA840582428E8
:1028800004D23A9880002FA90858399062493998A3
:10289000FDF7E2FD30305F4908715F493998FDF777
:1028A000DBFD2E915D492E98FDF7D6FD3030C1B28B
:1028B0005848417159493998FDF7CEFD2E917D2137
:1028C000C9002E98FDF7C8FD3030524988717D212E
:1028D000C9003998FDF7C0FD2E9164212E98FDF7AF
:1028E000BBFD30304B49087264213998FDF7B4FDC7
:1028F0002E910A212E98FDF7AFFD303045494872E0
:102900000A213998FDF7A8FD30314248817209E16A
:102910004048C0792D2872D13A9881002FA840589C
:10292000242848D23A9880002FA9085839903A496B
:102930003998FDF791FD303036490871364939989C
:10294000FDF78AFD2E9135492E98FDF785FD303033
:102950003049487131493998FDF77EFD2E917D212E
:10296000C9002E98FDF778FD30302A4988712E2154
:102970002848C1717D21C9003998FDF76DFD2E9160
:1029800064212E98FDF768FD3030224908726421D9
:102990003998FDF761FD2E910A212E98FDF75CFD17
:1029A00030301C4948720A213998FDF755FD303105
:1029B00018488172B6E01748407A3038030002F0B8
:1029C0005DFD0A8F909090900617354B7A901148D4
:1029D000807A302802D0312808D106E033210D4812
:1029E000417231200B49887200E000BF00BF79E0DE
:1029F0000848807A302803D0312808D101E084E0EB
:102A000005E03320034948723220887200BF00BFBE
:102A100068E0000018000020A086010010270000D8
:102A2000600100204552522D2D313800F748807A40
:102A3000302802D031280DD106E03320F349487206
:102A40003321F248817205E03320F0494872342086
:102A5000887200BF00BF45E0EC48807A3038030040
:102A600002F00CFD05040D13192027003321E7485F
:102A700041723520E54988721BE0EBE3EBE333203C
:102A8000E24948723620887213E03320DF494872E9
:102A9000372088720DE03320DC4948723820887274
:102AA00007E0FDE33321D94841723920D7498872C4
:102AB00000BF00BF16E0D548807A302802D0312808
:102AC0000CD105E03420D14948723120887205E0EC
:102AD0003420CE4948723220887200BF00BF01E026
:102AE00000E000BF00BF0B202E900AE02E98401E91
:102AF000C649095CC54A2E9811542E98401EC0B292
:102B00002E902E980328F1DC0CE0C048C0792D28C7
:102B100008D0BFA02E900822BC48001D2E99FDF7BA
:102B200065FC00BF00202E900CE024E0B7492E98F1
:102B3000001D095C2E98C01C34AA11542E98401C0C
:102B4000C0B22E902E980728F0DB1D2130A8817688
:102B50000D21C1760C2134A8FFF734FA0020AE49CC
:102B6000C8620021AC4881620020AB49486208621B
:102B700002F030FD04E400203D90B42110A8FDF7E0
:102B800032FCA6480F9000200E900D90A4A0006883
:102B90000C9000200B900A90A2A0006809900020E1
:102BA00008900790A048807C1D2803D19E48C07CD7
:102BB0000D2810D002F028FD0020069007E000212B
:102BC000994A069811540698401CC0B2069006987F
:102BD0001928F4DB14E403F0F9FE9348407801026D
:102BE00091488078081880B20F900020069008E085
:102BF0008D490698095C10AA11540698401CC0B271
:102C0000069006981228F3DB002008A908760690A3
:102C100015E006990F980841C007C00F00280AD098
:102C2000012008A90876002003F092FB4B20C00089
:102C3000FFF7E6FA06E00698401CC0B20690069838
:102C40000428E6DB00BF08A8007E01280DD1002083
:102C500003F04CFF0A20FFF7D3FA04210CA802F07E
:102C6000FDF872480088FFF7CBFA00200B90D6E3FE
:102C70000B98032841DA00210EAA0B98401C11542E
:102C800000200A901EE00B988000001D0A99411850
:102C90000F980841C007C00F00280FD001210EAACD
:102CA0000B98401C11540B98401CC0B2069003F0C6
:102CB0004FFB4B20C000FFF7A3FA06E00A98401C28
:102CC000C0B20A900A980428DDDB00BF0EA90B9859
:102CD000401C085C012810D10B98401CC0B2069023
:102CE00003F004FF3220FFF78BFA04210CA802F056
:102CF000B5F84E480088FFF783FA00200A9083E376
:102D00004B48006801210843494908600B9881003D
:102D10000A9809180F980841C007C00F002874D0FE
:102D20000B9881000A980818C0B2019003F05CFE6D
:102D30003648006A019080470A20FFF761FA0421B3
:102D400009A802F08BF80A20FFF75AFA00200D902C
:102D500051E001F025FC2D48807E012831D1002072
:102D60002A4988760846407E0C280BD101202A4942
:102D7000403188611E20FFF743FA00202649403188
:102D800088613DE02148407E0D281AD11F48807897
:102D9000062815D11D48C078822811D10020019045
:102DA0000BE00198401D1949095C0198001D174A64
:102DB00011540198401CC0B2019001980728F0DB23
:102DC0001EE00D9800280FD032210D98FDF74EFB24
:102DD000002909D10D484176042109A802F03EF8E6
:102DE000FF20F530FFF70CFA0D98401C80B20D90D3
:102DF0000120FFF705FA7D21C9000D988842A8DB64
:102E000000BF0020014948761CE013E018000020B4
:102E10003030302D3030300080420050FFFF000055
:102E2000FA0606FA800607733C00002060000020C6
:102E300000400040FE4801900722FE480199FDF73E
:102E4000D5FA00BF0B9881000A9808180A21484358
:102E50001230C0B20890242110AA089811540B987F
:102E600081000A980818401C0A210190FDF7FEFA1B
:102E70003030C1B210AA0898401C11540B98810040
:102E80000A980818401C0A210190FDF7EFFA30312A
:102E900010AA0898801C11541422E74902A8FDF7D3
:102EA00077F90B9881000A980818401C022814D062
:102EB0000B9881000A980818401C06280DD00B9822
:102EC00081000A980818401C092806D00B98810038
:102ED0000A980818401C0D2835D10B9881000A98D3
:102EE0000818401C022802D1012007901CE00B9812
:102EF00081000A980818401C062802D10220079079
:102F000012E00B9881000A980818401C092802D189
:102F10000320079008E00B9881000A980818401CCD
:102F20000D2801D10420079002A8FEF7C7FB0798DF
:102F3000800002A90858232805D9FF212D310798C0
:102F4000800002AA1150BB48001FC0792E287DD1F5
:102F50000420019018E00198072811D0B549091FF5
:102F60000198085C302803DB0198085C392807DDEC
:102F7000B2A000900722AF480099FDF737FA06E0AB
:102F80000198401CC0B2019001980B28E3DB00BF00
:102F9000A848001FC0792E287ED1A648001F0079BE
:102FA0003038A8494143A348001F40793038A64A29
:102FB000504309189F48001F807930387D22D20085
:102FC000504309189B48001F007A30386422504350
:102FD00009189848001F407A30380A2250430818D0
:102FE0009449091F897A401830383D900B98810028
:102FF0000A98081840009549085C2B286BD10B985B
:1030000081000A9808184000401C9049095C3D98CE
:1030100008183D903D980F2805D93D98322802D2D6
:103020003D980A383D903D981E2809D207988000A7
:1030300002A90858142803D20798800008583D9028
:1030400080493D98FDF708FA303000E03EE17949CB
:10305000091F08717B493D98FDF7FEF901917A49F6
:103060000198FDF7F9F930307249091F4871764926
:103070003D98FDF7F1F901917D21C9000198FDF717
:10308000EBF930306B49091F88717D21C9003D98EB
:10309000FDF7E2F9019100E090E164210198FDF76C
:1030A000DBF930306349091F087264213D98FDF750
:1030B000D3F901910A210198FDF7CEF930305D492D
:1030C000091F48720A213D98FDF7C6F93031594869
:1030D000001F817272E10B9881000A980818410064
:1030E0005A48405C2D287ED10B9881000A98081818
:1030F0004000401C5549095C3D9881426BD80B98B3
:1031000081000A9808184000401C5049095C3D980D
:10311000401A3D903D980F2805D93D98322802D29B
:103120003D980A383D903D981E280AD207988100A4
:1031300002A840581E2804D20798810002A84058CF
:103140003D9040493D98FDF787F930303949091FD6
:1031500008713C493D98FDF77FF901913A49019882
:10316000FDF77AF93030C1B23248001F417136495B
:103170003D98FDF771F901917D21C9000198FDF796
:103180006BF930302B49091F88717D21C9003D98AA
:10319000FDF762F9019164210198FDF75DF9303086
:1031A0002449091F087264213D98FDF755F90191E2
:1031B0000A210198FDF750F930301E49091F487265
:1031C0000A213D98FDF748F930311A48001F8172F5
:1031D000F4E008E0FFE71E48019007221548019936
:1031E000FDF704F9EAE03D980F2805D93D9832280B
:1031F00002D23D980A383D903D981E280AD2079881
:10320000800002A908581E2804D20798810002A84D
:1032100040583D900B493D98FDF71EF93030054967
:10322000091F087107493D98FDF716F9019113E050
:10323000102E00001C000020C06C00004552522DD2
:103240002D313900A0860100102700006001002008
:10325000242A0000CBE1BCE3FE490198FDF7FCF80D
:103260003030C1B2FC484171FA493D98FDF7F4F89D
:1032700001917D21C9000198FDF7EEF83030C1B20F
:10328000F54881717D21C9003D98FDF7E5F8019170
:1032900064210198FDF7E0F83030C1B2EE4800E05B
:1032A000F8E3017264213D98FDF7D6F801910A21F7
:1032B0000198FDF7D1F83030E74948720A213D986E
:1032C000FDF7CAF83031E448817277E0E24880794E
:1032D0002D2866D10798800002A9085824284ED2CC
:1032E000079880000858002849D00798810002A854
:1032F00040583D90D9493D98FDF7AEF83030C1B205
:10330000D5480171D5493D98FDF7A6F80191D149FD
:103310000198FDF7A1F83030C1B2CF484171CD49D5
:103320003D98FDF799F801917D21C9000198FDF7BD
:1033300093F83030C84988712E20C8717D21C900AA
:103340003D98FDF789F8019164210198FDF784F813
:103350003030C149087264213D98FDF77DF8019134
:103360000A210198FDF778F83030BB4948720A21EC
:103370003D98FDF771F83031B74881721EE00B209F
:1033800001900AE00198401EB349095CB24A0198D5
:1033900011540198401EC0B2019001980328F1DC3D
:1033A0000CE0AD48C0792D2808D0ADA001900722CF
:1033B000A948001D0199FDF719F800BF00200190F0
:1033C0000DE00198001DA4490A5C0898C01C0199F1
:1033D000401810A90A540198401CC0B201900198ED
:1033E0000728EEDB0020019007E000219A4A0198AF
:1033F00011540198401CC0B2019001981928F4DBC7
:103400000A98401CC0B20A900A98042800DA77E4AF
:103410000B9802F081FF0B98401CC0B20B900B98E8
:10342000042800DA24E41D2138A881740D21C17418
:10343000122110A8FEF7C6FD1420FEF7E1FE0020C1
:10344000069010E00A210698484314A9023140185A
:103450000A210590FEF7B6FD1420FEF7D1FE06986E
:10346000401CC0B2069006981028EBDB02213CA855
:103470000230FEF7A7FD00217B48C1628162002077
:10348000794948620862069007E0002110AA069870
:1034900011540698401CC0B206900698B428F4DB7C
:1034A000002006900AE000216B4A069811546F4AEA
:1034B000069811540698401CC0B206900698192828
:1034C000F1DB02F087F814E2282134A8FCF78BFF27
:1034D00000203390654840781D2803D163488078E8
:1034E0000D2810D002F090F80020329007E0002163
:1034F0005E4A329811543298401CC0B232903298D1
:103500001928F4DBDFE703F061FA2622584934A8D2
:1035100001F0A0F86420FEF773FE162130A80173B5
:1035200024214173022133A8FEF74CFD02F052F82A
:10353000C9E700203D903B903C904C4840781D28C6
:1035400003D14A4880780D2810D002F05DF80020A1
:103550003D9007E00021454A3D9811543D98401C9C
:10356000C0B23D903D981928F4DBECE303F02EFA4D
:103570007D20C000FEF744FE172138A801733D48A6
:1035800000887D21C9003A90FCF770FF3030C1B24D
:1035900038A841732E218173364800887D21C900E7
:1035A0003990FCF763FF3A9164213A98FCF75EFF8B
:1035B0003030C1B238A8C1732E48008864213990D8
:1035C000FCF754FF3A910A213A98FCF74FFF30304C
:1035D000C1B238A801745621417424218174072195
:1035E0003BA8FEF7EFFC01F0F5FFACE3ABE3AAE389
:1035F00000203D90502129A8FCF7F5FE00202890DE
:103600001A4840781D2803D1184880780D2810D01A
:1036100000203D9007E00021144A3D9811543D9848
:10362000401CC0B23D903D981928F4DB01F0ECFF3E
:1036300089E303F0CBF97D20C000FEF7E1FD0E48E1
:103640000078C007C00F002832D02F2129AA28985F
:10365000115413E01027000018000020A08601007C
:103660004552522D2D313700804200503C00002041
:1036700000E07F004C010020700000202898401CD2
:10368000C0B228905021289811542898401CC0B2EC
:1036900028904F21289811542898401CC0B2289097
:1036A0005721289811542898401CC0B228906AE0ED
:1036B000F94800780221084000281DD02F2129AAAE
:1036C000289811542898401CC0B22890522128985C
:1036D00011542898401CC0B22890542128981154A5
:1036E0002898401CC0B2289043212898115428984B
:1036F000401CC0B2289046E0E7480078042108400A
:1037000000281DD02F2129AA289811542898401C40
:10371000C0B228904621289811542898401CC0B265
:1037200028904C21289811542898401CC0B2289009
:103730004121289811542898401CC0B2289022E0BA
:10374000D54800780821084000281CD02F2129AA3C
:10375000289811542898401CC0B2289042212898DB
:1037600011542898401CC0B228904C21289811541C
:103770002898401CC0B228905421289811542898A9
:10378000401CC0B2289000203D9035E001203D99BA
:103790008840C24909880840002829D02F2129AA39
:1037A000289811542898401CC0B22890532128987A
:1037B00011542898401CC0B228900A213D98401C02
:1037C000FCF754FE3030C1B229AA28981154289829
:1037D000401CC0B228900A213D98401CFCF746FED0
:1037E000303129AA289811542898401CC0B228903A
:1037F0003D98401CC0B23D903D981028C6DB2898EB
:10380000012804DD29A82899FEF7DCFB08E0302117
:1038100028A8017124214171022129A8FEF7D2FBB9
:1038200000203D9007E000219D4A3D9811543D98AD
:10383000401CC0B23D903D981928F4DB01F0CAFE4F
:1038400081E200203D903C909548407A1D2803D1AC
:103850009348807A0D2810D000203D9007E0002189
:103860008F4A3D9811543D98401CC0B23D903D9800
:103870001928F4DB01F0C8FE65E203F0A7F87D200B
:10388000C000FEF7BDFC8648401C02F0AFFD3121B0
:1038900038A801742421417402213CA8FEF792FB50
:1038A000FF20F530FEF7ACFC7D48006A3B90804776
:1038B00002F008FE01F08EFE45E200203D903B90B4
:1038C0003C90774840781D2803D1754880780D28B2
:1038D00010D000203D9007E00021714A3D9811541E
:1038E0003D98401CC0B23D903D981928F4DB01F092
:1038F0008BFE28E203F06AF87D20C000FEF780FC12
:10390000322138A80173062266490D3000F0A2FE6C
:103910006420FEF775FC242138A8C17408213BA857
:10392000FEF750FB00203D9007E000215C4A3D98E7
:1039300011543D98401CC0B23D903D981928F4DBCD
:1039400001F048FEFFE100203D903C905448007992
:103950001D2803D1524840790D2810D000203D90F9
:1039600007E000214E4A3D9811543D98401CC0B2DA
:103970003D903D981928F4DB01F046FEE3E103F0A9
:1039800025F87D20C000FEF73BFC4548401C02F0B6
:10399000EFFE20224349891D434800F05BFE0020D2
:1039A0003D9007E000213E4A3D9811543D98401C4F
:1039B000C0B23D903D981928F4DB412138A801742C
:1039C0002421417402213CA8FEF7FCFA01F002FE1A
:1039D000B9E136A103C93D913C9000203B903A905B
:1039E0002F4840781D2803D12D4880780D2802D01B
:1039F00001F00AFEA7E102F0E9FF002002F0A8FCB6
:103A0000012002F0A5FC022002F0A2FC032002F03B
:103A10009FFCC820FEF7F4FB00203B9018E03B9889
:103A200002F0E2FF6420FEF7EBFB802138A801746E
:103A30007421017500201F49487605213CA801F03A
:103A40000DFA00201B4948763B98401CC0B23B90C1
:103A50003B981028E3DB002039900AE00021154A4A
:103A6000399811540E4A3A9811543998401CC0B2F2
:103A7000399039981928F1DB01F0ACFD63E1084871
:103A800040781D2803D1064880780D2814D001F015
:103A9000BBFD58E153E000007000002072000020E0
:103AA0003C00002000E07F0060010020800605014E
:103AB000740000001800002002F088FF002002F0CF
:103AC0002BFC012002F028FC022002F025FC032040
:103AD00002F022FCFF20F530FEF792FB01F07AFDA8
:103AE00031E1A34840781D2803D1A14880780D28F2
:103AF00002D001F089FD26E102F068FF01209D4916
:103B00008863FF20F530FEF77BFB01F063FD1AE1CF
:103B1000974840781D2803D1954880780D2802D019
:103B200001F072FD0FE102F051FF0020914988631E
:103B3000FF20F530FEF764FB01F04CFD03E18E49F8
:103B400003C93D913C9000203B903A90002139916F
:103B50003890874880781D2807D18548C0780D287F
:103B600003D183484078102810DD01F04DFD00207E
:103B70003B9007E000217E4A3B9811543B98401C43
:103B8000C0B23B903B981928F4DBDCE002F01EFF4A
:103B90007748417839910122110339A800F0E0FDFE
:103BA00073484078FF21F5314843C8307349088095
:103BB0006F48417838A8C1746D484078F321081ADD
:103BC000C1B238A80175002002F0C2FB012002F04A
:103BD000BFFB022002F0BCFB032002F0B9FB002077
:103BE0003B907DE066480068012108436449086015
:103BF0003B9802F0F9FE6420FEF702FB6148006A80
:103C00003690804705213CA801F028F9C820FEF72E
:103C1000F7FA002038903BE000F0C2FC5948807E63
:103C200001282ED10020574988760846407E042876
:103C300016D10020369001204E49403188610A207B
:103C4000FEF7DEFA00204B494031886130A93B98ED
:103C5000087600204876022136A8FEF7B3F90FE077
:103C60004848407E05280BD10020369030A93B986B
:103C70000876F0204876022136A8FEF7A3F900BFA7
:103C800009E03898401CC0B238901E20FEF7B8FA00
:103C900038986428C0DB00BF389864280BDB00200C
:103CA000369030A93B980876F1204876022136A854
:103CB000FEF788F900BF00203A9007E00021314A62
:103CC0003A9811543A98401CC0B23A903A98192840
:103CD000F4DB00202B4948763B98401CC0B23B9057
:103CE0003B98102800DA7DE700203790602130A84B
:103CF000017724214177022137A8FEF763F90020DC
:103D00003A900AE000211F4A3A981154184A3A980A
:103D100011543A98401CC0B23A903A981928F1DBF5
:103D2000002002F0F9FA012002F0F6FA022002F077
:103D3000F3FA032002F0F0FAFF20F530FEF760FA04
:103D400001F048FC00BF00BF00203D900AE00021C8
:103D50000C4A3D981154064A3D9811543D98401C18
:103D6000C0B23D903D981928F1DB3FB000BD000086
:103D70003C00002080420050D46C00006000002015
:103D800000400040180000201948006AFF2101315E
:103D90000840002808D00846154908620120154946
:103DA00008701549087022E011484030006A01216E
:103DB0008903084000280AD008460D4940310862AE
:103DC00000200C49087001200B4908700FE00848DA
:103DD000006A0749086206484030006A04494031D9
:103DE000086203488030006A0149803108627047E8
:103DF0000040005068000020690000208269012313
:103E00008B409A438261C369024A8A409343C361EB
:103E1000704700000100010010B58469130E8B404B
:103E20001C438461C3691402240A8C402343C36188
:103E300010BD000010B50022FF2101315E4800F0E6
:103E4000EFF85D48406AFF21013188435A494862D2
:103E500001225103584800F0E3F8012211035648AB
:103E600000F0DEF8012240215348403000F0D8F83D
:103E7000012280215048403000F0D2F80122510246
:103E80004D4800F0CDF80122D1024B48803000F0BF
:103E9000C7F8012291024848803000F0C1F80122A1
:103EA00051024548803000F0BBF80122110242481F
:103EB000803000F0B5F8012240213F4800F0B0F812
:103EC000012280213C48803000F0AAF801224021E4
:103ED0003948803000F0A4F80122D1033648803000
:103EE00000F09EF80022012189033348403000F0A1
:103EF00097F831484030406A0121890388432E49B0
:103F000040314862012240212B48C03000F088F83F
:103F1000012291032848803000F082F8012280219C
:103F20002548C03000F07CF8012291032248C030BF
:103F300000F076F801222021204800F071F80122DB
:103F4000D1021D48403000F06BF8012291021A485E
:103F5000403000F065F8012251021748403000F06F
:103F60005FF8002016494862154980318863C862AD
:103F70008862486208620120124948611049403154
:103F8000C8628862486200200D498031C863886138
:103F9000C8610B498861012009494031C86100F0BE
:103FA00013F8012006494863086300200549403999
:103FB00088618863C86110BD004000500041005016
:103FC000004200500043005010B508210748FFF799
:103FD00015FF042000F026F90E2104484030FFF7B9
:103FE0000DFF042000F01EF910BD0000004000503D
:103FF00010B50122120408210848FFF70DFF042024
:1040000000F024F9012212040E2104484030FFF789
:1040100003FF042000F01AF910BD0000004000501A
:1040200070B5034600200FE0012484400C40002CB2
:1040300009D01C6846000325B540AC434600154630
:10404000B5402C431C60401C1028EDD370BD00000F
:10405000044604A0FCF7E8F8204602F063FC00BF29
:10406000FEE70000496E2048617264204661756C6D
:10407000742048616E646C65720A000030B58BB0C4
:104080000446142106A8FCF7AEF9142101A8FCF798
:10409000AAF90120494948624949486147494031E4
:1040A000C86288624862FF20F530FEF7A9F8012156
:1040B0004448FDF775FA4348403080680121C90241
:1040C000084340494031886000BF3F4800780028DD
:1040D000FBD000203C490870002542E0012139480E
:1040E000FDF75EFA3748403080680121C902084375
:1040F00034494031886000BF334800780028FBD045
:104100000020314908702F49069849690905090DB1
:10411000401806902B49079809690905090D4018B0
:10412000079028490898C9680905090D40180890A2
:104130002449099889680905090D40180990214901
:104140000A9849680905090D40180A901D48403031
:1041500080680121C90288431A4940318860681C7F
:10416000C5B20A2DBADB0698410140180001000CC7
:1041700020800798410140180001000C60800898D9
:10418000410140180001000CA0800998410140182D
:104190000001000CE0800A98410140180001000C69
:1041A00020810020054948620549486103494031A2
:1041B000C862886248620BB030BD00000042005007
:1041C0000043005000000E406200002000B500F0E7
:1041D00083F903488069772108430149886100BD5C
:1041E0004000005008B50D4808230422002100902B
:1041F0000B4800F049FB0A48006801218902884306
:1042000007490860084600F0E5F905480068012103
:10421000890588430249086008BD000040420F003C
:1042200000001340C206D20E01219140014A1160E4
:104230007047000080E100E0C206D20E01219140EB
:10424000014A11607047000080E100E0C206D20E12
:1042500001219140014A11607047000000E100E037
:10426000C206D20E01219140014A11607047000040
:1042700000E100E000B5012002490863FFF7A6FF56
:1042800000BD00000002005009490A4A516002E0E6
:104290000749084A51600749496801221204114040
:1042A0000029F5D00349896A0143024A91627047A7
:1042B00065A90000008000401648806A022108407D
:1042C000002808D01348C06A0840002803D0022004
:1042D0001049C862C8620F48806AC007C00F002832
:1042E00008D00C48C06AC007C00F002802D00120C7
:1042F0000849C8620748806A04210840002807D09E
:104300000448C06A0840002802D004200149C8625D
:10431000704700000080004038B504467D20C00092
:1043200000905C485C49086008460068012806D097
:104330005848086000BF584800680128FBD1002C8D
:1043400000D138BDE06900281AD15448524948606C
:1043500002E05248504948604F4840680121090432
:1043600008400028F5D04C484069400840004A49C0
:104370004861206A022817D120691430206113E0B7
:1043800046484549486002E044484349486042483D
:1043900040680121090408400028F5D03E484069E2
:1043A000012108433C4948617D2212012168881A95
:1043B0000A21FCF751F805057D2212012168881AAF
:1043C0000A21FCF749F8080405430A216068FCF754
:1043D00043F8000305430A216068FCF73DF8080232
:1043E00005430A21A068FCF737F8000105430A21BC
:1043F000A068FCF731F80D43294805602748264995
:10440000486000BF24484068012109040840002892
:10441000F8D023480068204908610A212069FCF788
:104420001BF805050A212069FCF716F80804054366
:104430000A216069FCF710F8000305430A2160694E
:10444000FCF70AF8080205430A21A069FCF704F802
:10445000000105430A21A069FBF7FEFF0D43104848
:1044600005600E480C49486000BF0B4840680121B8
:10447000090408400028F8D0094800680649C860C7
:10448000E068886100BF0098411E00910028FAD1C1
:1044900000BF56E75713EBA50080004065A9000058
:1044A000840000200A490B4A516002E00849094A89
:1044B0005160084949680122120411400029F5D0D1
:1044C0000449096BC908C9000143024A11637047D6
:1044D00065A9000000800040204800680521090708
:1044E00008631E48406848631C48806888631B480E
:1044F000C068C863194800691949086017484069CD
:1045000048601648806988601448C069C8601348CC
:10451000006A08611148406A48611048806A8861F1
:1045200010480068104948620E4840680E49403102
:1045300048620C4880680C49803148620948C0686C
:104540000949C0314862074800690849486205487E
:104550004069064940314862704700000801002068
:104560004000005034010020004000500041005045
:1045700010B50C20FFF760FE002404E0002007497E
:104580000855601CC4B2192CF8DB0C20FFF768FE3C
:10459000002002498876487610BD000018000020EF
:1045A0000B48807F01280BD10949C8770846808BCA
:1045B0000A280CDD0020888388770120887606E0B1
:1045C0000348C07F012802D100200149C877704705
:1045D00018000020C16808229143C16070470000A4
:1045E00070B505460C46164600F0A6F81848C06897
:1045F0000D218843401C1649C860022000F056F97E
:10460000FF2109042140080C00F050F9FF210902A4
:104610002140080A00F04AF9E0B200F047F9FF2013
:104620000130864200DD064603E0287800F03EF9BE
:104630006D1C3046711E8EB20028F6D10448C06849
:104640000D2188430249C86000F062F870BD000087
:104650000000134070B505460C4616461548C06864
:104660000D218843401C1349C860032000F01EF947
:10467000FF2109042140080C00F018F9FF2109026C
:104680002140080A00F012F9E0B200F00FF904E04E
:10469000FF2000F00BF928706D1C3046711E8EB2A1
:1046A0000028F5D10348C0680D2188430149C8603E
:1046B00070BD00000000134070B5002400250026E6
:1046C0001248C0680D218843401C1049C8609020E2
:1046D00000F0ECF8002000F0E9F8002000F0E6F827
:1046E000002000F0E3F8FF2000F0E0F80546FF208E
:1046F00000F0DCF806460548C0680D2188430349F0
:10470000C860280230430446204670BD00001340B4
:1047100010B50848C0680D218843401C0549C86091
:10472000052000F0C3F80348C0680D218843014903
:10473000C86010BD0000134010B50848C0680D21C6
:104740008843401C0549C860062000F0AFF80348C4
:10475000C0680D2188430149C86010BD00001340A6
:10476000F0B585B007460E4614460020039002902F
:10477000019000250090F0B20190FF2101310198D5
:10478000081AC5B22046E117090E09180904090ED6
:104790000391E117090E091809120902611AC9B239
:1047A0000291019800281FD10398002805D12246C4
:1047B00031463846FFF714FF64E009E0FF2201327A
:1047C00031463846FFF70CFFFF360136FF37013719
:1047D0000398411EC9B203910028EFD131463846F3
:1047E000029AFFF7FDFE4DE00398002819D10298C8
:1047F000A84210DD0298401BC0B200902A46314604
:104800003846FFF7EDFE76197F1931463846009A93
:10481000FFF7E6FE36E0224631463846FFF7E0FE77
:1048200030E0601B84B22046E117090E0918090424
:10483000090E0391E117090E091809120902611AFC
:10484000C9B202912A4631463846FFF7C9FE7619A9
:104850007F1909E0FF22013231463846FFF7C0FEDA
:10486000FF360136FF3701370398411EC9B2039165
:104870000028EFD10298002804D031463846029A29
:10488000FFF7AEFE05B0F0BDF8B505460E4617467B
:104890001C46202C00D10024E0003043384328601F
:1048A0002846069900F01CF8F8BD00000146F020EB
:1048B0000A4A1162126801231A43084B1A6000BFAA
:1048C000064A1268D207D20F01235A405A40002AE2
:1048D000F6D1024A1269D0B27047000000001340BE
:1048E000F8B505460E460027254885420ED12548D5
:1048F0008069012109050840884203D1FDF7A6FB24
:10490000044623E0FDF7AAFB04461FE01E4885424B
:104910000ED11C488069012149050840884203D115
:10492000FDF794FB044611E0FDF798FB04460DE00B
:1049300014488069012189050840884203D1FDF7A8
:1049400085FB044602E0FDF789FB0446A64200D938
:104950002646002E08D031462046FBF77DFD471E37
:10496000FF2F02D9FF2700E00027A868000A0002F5
:104970003843A860791C2046FBF76EFDF8BD0000A7
:1049800000000340000200500000134010B500BFBB
:1049900006E0592050490860162008608820086009
:1049A0004D4800680128F4D100BFFDF729FB022023
:1049B000FDF726FB0120FDF70FFC0220FDF70CFCA4
:1049C00000210846FDF78AFB4448FDF707FB072056
:1049D0004007FDF703FB4148401CFDF7FFFA404844
:1049E000FDF7FCFA3F48FDF7F9FA3F48FDF7F6FA04
:1049F0003E48FDF7F3FA3E48FDF7F0FA0022114673
:104A000007204007FDF79CFB002211463348FDF7C5
:104A100097FB002211463148401CFDF791FB002214
:104A2000012149052E48FDF78BFB002211462E4837
:104A3000FDF786FB002211462C48FDF781FB00F0B4
:104A400081FA05200007806B77210904884305213E
:104A5000090788630846806B112109040843052172
:104A6000090788630846406B7721090688430521BA
:104A7000090748630846406B33214906084305216E
:104A8000090748630846806B1A4908400521090751
:104A900088630846806B1849084305210907886325
:104AA0000846006B154908400521090708630846B8
:104AB000006B134908430521090708631148406842
:104AC0001F21490408430F49486000BF00200249E4
:104AD000086000BF10BD000000010050103D00A69E
:104AE0000D0050C31CFE23A6023D84AE833DC4AE20
:104AF000010000E08888FFFF333300008F8888FFC3
:104B00001011110000400050F0B589B0142104A824
:104B1000FBF769FC0026BCA000680390002700207A
:104B2000BA490880BA490870002102910122110394
:104B300002A8FFF78FFD6420FDF762FB6846007A4C
:104B40000A280CDA6846007A002808DD6846007AF0
:104B5000FF21F53148434018AE49088002E0AE48D5
:104B6000AC4908802022AD49AD48FFF773FD08220B
:104B7000AC49AD48FFF76EFD6420FDF741FB04A88A
:104B8000FCF79CFDA9490498884203D8A8490498D9
:104B9000884204D29E480078401C9D4908709C4879
:104BA000007800280DDC0A20FDF72AFBFFF784FDC2
:104BB0000746A048874204D095480078001D9449D4
:104BC00008709348007800287EDC002400259AA015
:104BD0000068019000BF8DE0002C07D1002001F09B
:104BE000B7FB19204001FDF70BFB25E0042C0AD18F
:104BF000002001F091FB012001F0AAFB19204001E7
:104C0000FDF7FEFA18E0082C0AD1012001F084FB20
:104C1000022001F09DFB19204001FDF7F1FA0BE0A5
:104C20000C2C09D1022001F077FB032001F090FB4E
:104C300019204001FDF7E4FAE0B201F0D5FE0A20A8
:104C4000FDF7DEFA8021684601717121C1717B494F
:104C5000086A8047042101A800F000F9C820FDF788
:104C6000CFFA002526E0FFF79BFC7448807E0128E0
:104C700008D17248407E052817D100206F49487638
:104C800000251BE0002D10D0FF212D312846FBF719
:104C9000EDFB002909D16949086A8047042101A870
:104CA00000F0DCF86420FDF7ABFA681C85B20A203E
:104CB000FDF7A6FAE12080008542D4DD00BF002088
:104CC0005E494876887600E024E0E1208000854255
:104CD00007DC0846807885280AD10846C078002875
:104CE00006D00120A040494909884018474908805A
:104CF000601C84B2102C00DA6EE7032001F00CFB7C
:104D0000002404E000204D490855601C84B2192C91
:104D1000F8DB00BF3E48007800283DDC0020484911
:104D200088616420FDF76CFA0120454988617D2087
:104D3000C000FDF765FA4349086A804700204049F2
:104D4000C861FF20F530FDF75BFA042103A8FDF7E9
:104D500039F9FF202D30FDF753FA10E03A4800787A
:104D6000012803D10020384908700AE0042103A873
:104D7000FDF728F9C820FDF743FA701CC6B20F2EC4
:104D8000ECDB00BF01202E49C8610F2E04DB204858
:104D9000007808301E490870202220492048FFF77B
:104DA00059FC6420FDF72CFA18480088002803DC21
:104DB0001748007800280CDD0120214980318861E6
:104DC0007D20C000FDF71CFA00201D49803188615C
:104DD00018E001201A49803188616420FDF710FA3B
:104DE00000201749803188616420FDF709FA01200D
:104DF0001349803188616420FDF702FA00201049D0
:104E00008031886109B0F0BD41540D0A7200002064
:104E10007000002060000020C409000006E07F0050
:104E20006001002000D07F00740000209411000079
:104E3000480D000016EF000050060947180000203A
:104E4000404200503C0000201400002000B5014604
:104E5000084600F001F800BD7047000070B5044638
:104E60000D462A462146024800F0C4FA70BD0000F3
:104E70000000054070B51048006945076D0F002D12
:104E800001D10E4C0EE0012D01D1EC030AE0022D00
:104E900003D100F017F8044604E0032D01D1084CBB
:104EA00000E0064C0448C0690007000F461C31466C
:104EB0002046FBF7D1FA70BD00020050001BB7007E
:104EC00010270000FEB5002002901C48456AC00172
:104ED0002840002801D00020FEBD012040042840C9
:104EE000002801D0164F00E0154F01200003284094
:104EF000002801D0022000E00120019003200002E0
:104F00002840060A002E01D1022408E0012E01D11A
:104F1000042404E0022E01D1082400E01024A90694
:104F2000890E2031794308462146FBF795FA009017
:104F30000199FBF791FA02900298CDE70002005028
:104F4000001BB70010B5FFF795FF0649086006493A
:104F5000044800684A108018FBF77EFA034908608D
:104F600010BD00000000002040420F00040000209F
:104F70003FB50246184D39CD694639C117488242BE
:104F800006D11748406907231B021840010A19E09F
:104F90001448824206D11248406907231B03184077
:104FA000010B0FE01048824206D10D4880690723AB
:104FB0001B021840010A05E00948806907231B030A
:104FC0001840010B042904D288006B46185804B01D
:104FD00030BD0648FBE70000F86C0000000001400F
:104FE000000200500001014000001140001BB7000A
:104FF000FEB505460F4616462846FFF7B9FF04469C
:105000000020019000906008B04202D2022001907E
:1050100013E001204006844203D303200090A4083B
:1050200006E001200006844202D3012000906408BB
:1050300031462046FBF710FA01900198A8600098CD
:1050400068602F60009A521C019850430146204628
:10505000FBF702FAFEBD000000B500BF01201049B9
:10506000086100BFFCF74EFF0E48808B0E49884256
:1050700002DD00200B4988830C48808B0A49884256
:1050800002DD0020094988830648808B401C0549C1
:1050900088830648808B401C0449888300BD00003B
:1050A000000001401800002060EA00003C000020E1
:1050B00010B500BF01203649086100BF32213548D4
:1050C0000088FBF7D3F900291AD13348007808216A
:1050D0000840002804D03148C069C0432F49C86146
:1050E0002F480088FF21F531884209DD2D480068EE
:1050F0002D49884204D22948806BC04327498863E0
:1051000024480088401C2349088008460088274915
:10511000884202DB00201F49088021480088FF21C7
:10512000F531884222DA1E480088401C1C4908805C
:1051300032211F480078FBF799F9002910D100208F
:105140001B490870174800681749884203D9012095
:105150001249886304E01148806BC0430F4988639B
:1051600013480078401C1249087010E00C48008871
:10517000FF21F53188420AD100200849C8618863BF
:105180000C49087006480088401C0549088010BD7D
:10519000000101400800002070000020C0420050C3
:1051A0000A0000204C010020480D000060EA0000C9
:1051B0000C0000206800002010B57D22D2001021D4
:1051C0000B48FFF715FF00BF0948C06801210843DD
:1051D0000749C86000BF0820FFF742F800BF044835
:1051E0000068012108430249086000BF10BD0000AB
:1051F0000000014010B5642210210B48FFF7F8FEB3
:1052000000BF0948C068012108430749C86000BFC2
:105210000920FFF71BF800BF03480068012108437D
:105220000149086000BF10BD00010140FF21134A81
:105230001069C207D20F002A1ED017E00022104BBF
:105240009A839A7601229A771A46527E521C5A768F
:105250001A46527E192A01DB19225A76074A126829
:10526000D1B2074A527E521E054B9954034A9269A5
:1052700002231A40002AE1D07047000000000540D8
:105280001800002000B5FFF7D1FF00BD10B5094898
:10529000094908624B21C901084800F05BF807483A
:1052A000C068112108430549C8600C20FEF7D8FFEB
:1052B00010BD0000714500001800002000000540EE
:1052C000FF21134A1069C207D20F002A1FD018E02D
:1052D0000022104B9A8301229A771A46527E521C62
:1052E0005A7600229A761A46527E192A01DB192232
:1052F0005A76074A1268D1B2064A527E521E054BB0
:105300009954034A926902231A40002AE0D0704758
:10531000000015403C00002000B5FFF7D1FF00BDA4
:1053200010B5094809490862E1214902084800F01E
:1053300011F80748C068112108430549C8600D20CD
:10534000FEF78EFF10BD0000D51E00003C000020BF
:1053500000001540F0B587B004460D4622480146CE
:105360000EC9C06802AE0EC605902048406980078D
:10537000800F06900698800002A90F581B48C0694C
:105380000F2109020840000A401C0190002F07D19C
:10539000FFF798FD00900199FBF75EF8074604E0DF
:1053A00038460199FBF758F807460020A063032010
:1053B000A060002D15D06908C8192946FBF74CF8E4
:1053C000461E0B4886420BD9E900C8192946FBF74F
:1053D00043F80009401E0121C9070843606200E04C
:1053E000666207B0F0BD0000086D000000020050CA
:1053F000FFFF000070B503460C46002111E00025B8
:1054000006E06D1C01208007854201D3002070BD9D
:1054100098690126760230400028F2D0605C18605E
:10542000491C9142EBD10846F1E7000010B5044653
:105430002403FFF781F9FFF76BF90F48C0680D21CE
:105440008843401C0C49C8602020FFF72FFA210236
:10545000080EFFF72BFA2104080EFFF727FAE0B237
:10546000FFF724FA0448C0680D2188430249C86048
:10547000FFF74EF910BD00000000134030B4744631
:10548000641E2578641CAB4204D3635D5B00E318A3
:1054900030BC18471D46F8E74900CA020243100015
:1054A00000D004204A0D01D001221043044A490DC6
:1054B000914201D102210843012800D10520704703
:1054C000FF070000F8B504464F1EC8000838211831
:1054D00015461E46086849683A4606239A4310D086
:1054E0002A463346FBF7C6FC3A46D200083AA318D0
:1054F0001A687F1E5B68FBF719FA06223B46934346
:10550000EED1022F23D0042F11D0062F2FD12A46FF
:105510003346FBF7AFFCE36AA26AFBF707FA2A46B9
:105520003346FBF7A7FC636A226AFBF7FFF92A46BA
:105530003346FBF79FFCE369A269FBF7F7F92A46BC
:105540003346FBF797FC63692269FBF7EFF92A46BC
:105550003346FBF78FFCE368A268FBF7E7F92A46BE
:105560003346FBF787FC63682268FBF7DFF9F8BD79
:10557000002210B5134610460149FBF707FA10BD8B
:105580000000F03F10B5FBF7D1F910BD002210B5B7
:10559000134610461146FBF7F9F910BD10B5072167
:1055A000024A00200907FBF78BFE10BD0103000033
:1055B000034A10B500201107FBF782FE10BD000062
:1055C00001FDFFFF30380A2801D20120704700207A
:1055D0007047000010B501200A4988616420FCF77B
:1055E0000FFE0020074988616420FCF709FE0120B6
:1055F000044988616420FCF703FE002001498861AA
:1056000010BD0000C042005010B501201149886152
:10561000FF202D30FCF7F4FD00200E498861642046
:10562000FCF7EEFD01200B498861FF202D30FCF7CF
:10563000E7FD0020074988616420FCF7E1FD0120B7
:1056400004498861FF202D30FCF7DAFD0020014974
:10565000886110BDC042005001460020C043704721
:1056600000B502460B461046FFF7F0FB104600BDA2
:105670008AB0FFF78BF9FEF7DDFBFEF7B3FDFBF712
:10568000C7FFFFF799FDFFF7B5FDFFF749FEFFF7ED
:10569000FDFD00BF06E059207B4908601620086028
:1056A00088200860784800680128F4D100BF774856
:1056B00001900220029007200390002005900690A0
:1056C00007900220049001200890FEF7F5FF0822C1
:1056D0006F497048FEF7BEFF6F48FBF7EFFF7D2074
:1056E000C000FCF78DFD01A8FEF716FE0120FEF7B5
:1056F000D9FE0220FEF7C8FD1F2001218140674A24
:10570000116000BF6648006B0821084364490863C4
:10571000FFF7FAF96349086A804700BF62480088CA
:10572000FF21F5318842F9DD5E49086A8047FEF7BE
:105730005FFC092001218140584A8032116000BF7E
:1057400000BF5A48C068400840005849C86000BFC0
:1057500098E05748007801280AD15249086A8047E2
:105760005449086A8047002051490870FFF732FF0A
:1057700051480078012843D14A48807E012829D128
:105780004E48007801280FD14648FCF743FD002021
:105790004A4908704349086A80474649086A804771
:1057A00000204749088015E046480078012809D1C3
:1057B0000020444908703B49086A80473D49086A0F
:1057C000804707E0FFF720FF3649086A80473949DC
:1057D000086A8047FF20F530FCF712FD3848008842
:1057E000401C3749088008460088374909888842A4
:1057F0001CDD00203049087001203449087015E094
:1058000000202F4908803148007801280AD1002063
:105810002E4908702E4988616420FCF7F1FC0120B4
:105820002B498861FF20F530FCF7EAFC2948006825
:105830000121084327490860174800F011FD164868
:1058400000682549884207D221488030806BC043D8
:105850001F498031886308E00F4800681E4988426C
:1058600003D900201A49803188631C480078082138
:105870000840002806D016488030C069C04314494B
:105880008031C86165E7000000010050E1070000B9
:1058900000D07F00740000204C01002000E100E0F7
:1058A000008000403C0000200A0000200001014070
:1058B0006900002018000020680000201600002069
:1058C0006600002015000020640000206A0000200F
:1058D0004042005000400040740E00007000002064
:1058E000F0B51FB494B084460C460246179F169834
:1058F0000290490078006300490840080493002A98
:1059000001D0012500E00025FE4A5D19AD185310B5
:105910009D422CD37D00029E0195002E00D00126D1
:10592000AE19F94BB5189D4221D3029B0246F74DA3
:105930001A430BD02A46944202D16246002A05D06F
:105940006246049B002A05D0012504E00020294678
:1059500019B0F0BD00255D19ED4B9D4207D8029EA0
:10596000019D002E00D00126AD199D4207D93B466E
:1059700060462146169AFFF705FE19B0F0BD0025D6
:10598000002C28DAE34B984225DAE34B984201DBFE
:10599000022520E0DD4B98421DDBE04B060DF3189D
:1059A000142B09DD3426F61A029BF3401A46B34045
:1059B000029EB3420BD00EE0029E002E0BD11426A5
:1059C000F61A0346F3401A46B340834203D1D50783
:1059D000ED0F02235D1B62460B46134318D1002FC7
:1059E00016DA002C03D0022D01D0012D06D00220A2
:1059F000FBF7ABFBFFF7BCFD19B0F0BD0220FBF7D6
:105A0000A4FBFFF7B5FD0122D207514019B0F0BD4C
:105A1000029B002B62D1BF4B984220D1C0488442E8
:105A200001D1100008D0B948814209DB002F10DBFA
:105A30001698394619B0F0BD0020B44919B0F0BD30
:105A4000002F06DA01223946D2071698514019B0C4
:105A5000F0BDB44979440868496819B0F0BDAB4E4F
:105A6000B04226D1002F22DA002904D0994211D168
:105A7000100008D010E0100072D1A649E20FD20742
:105A8000114319B0F0BD0020E20F0146D2071143C7
:105A900019B0F0BD994203DB6046214619B0F0BD54
:105AA000234600203146FAF771FF19B0F0BD1046C9
:105AB000F3E7994212DA01239B079F4203D1234661
:105AC00010461946C6E3984B9F4207D1221E05DBBC
:105AD0006046114600F002FF19B0F0BD6300664653
