:020000040000FA
:10000000E0120020C9010000E501000075010000B8
:1000100000000000000000000000000000000000E0
:10002000000000000000000000000000E9010000E6
:100030000000000000000000EB010000ED010000E6
:10004000EF010000EF010000EF010000EF010000F0
:10005000813D0000EF010000EF010000EF01000012
:10006000E150000039510000EF010000EF010000F5
:100070000D530000A1530000EF010000EF0100004C
:10008000EF010000EF010000EF010000EF010000B0
:10009000EF010000EF010000EF010000EF010000A0
:1000A00000000000EF010000EF010000EF01000080
:1000B0006D420000E5150000EF010000B1420000B4
:1000C00000F002F800F046F80CA030C808382418F8
:1000D0002D18A246671EAB4654465D46AC4201D180
:1000E00000F038F87E460F3E0FCCB646012633426C
:1000F00000D0FB1AA246AB4633431847D46E00002B
:10010000F46E0000103A02D378C878C1FAD85207CA
:1001100001D330C830C101D504680C6070470000BD
:100120000023002400250026103A01D378C1FBD813
:10013000520700D330C100D50B60704710B5782945
:1001400002D100F07FF810BD002010BD1FB51FBD0B
:1001500010B510BD01F0A6F91146FFF7F7FF05F045
:1001600039FB01F0BEF903B4FFF7F2FF03BC01F065
:10017000EDF9000004207146084202D0EFF3098037
:1001800001E0EFF308807146004A10474540000047
:1001900070B505460C46164602E00FCC0FC5103E62
:1001A000102EFAD2082E02D303CC03C5083E042E2B
:1001B00007D301CC01C5361F03E021782970641CE8
:1001C0006D1C761EF9D270BD0C480D4901600D49B9
:1001D00001600D4901600D4A0D4911600021016067
:1001E0000C480047FEE7FEE7FEE7FEE7FEE7FEE716
:1001F00009480A490A4A0B4B7047000000010050A9
:100200005900000016000000880000006000005047
:10021000A55A0000C1000000E0010020E01200200B
:10022000E0090020E00900200FB4054910B503AA39
:10023000029800F0E9FF10BC08BC04B018470000A9
:100240007C00002070B504460D4621461068C0466B
:10025000C0462188090502D50F4A7A4402E00E4AB9
:100260007A440E3223460021243305E006070009B4
:10027000360F965D5E54491C0028F7D12078002384
:10028000000705D5702D03D0002901D002231132BB
:10029000204600F060FF70BD3A6C0000F3B50446E4
:1002A000002081B020622046E168884700287AD08B
:1002B000252802D06268A16871E0E1682046002527
:1002C000884706460020E0610746A0612A2E0AD032
:1002D000304605F0BBF9002827D0B8000019303EA1
:1002E0000090866119E00298BA00121902C8916163
:1002F00002902046E1688847012F064617D1E06941
:1003000000281FDA202085431CE000980A2180691C
:10031000484300998019303888612046E168884751
:10032000064605F093F90028EFD1012F0AD02E2EB2
:1003300008D12046E16888470646202005437F1CF7
:10034000022FC3DBA069002803DA4042A06101202C
:100350000543E80701D010208543002E23D0304606
:100360004138192803D80120C00205432036204611
:1003700025603146029A1546FFF7E0FE00280BD0B3
:10038000012806D0ED1DE808C000083002908AE779
:1003900009E02D1D029586E762683046A168904706
:1003A000206A401C7EE7206AFEBD01E004C0091FF0
:1003B0000429FBD28B0701D50280801CC90700D01D
:1003C0000270704700290BD0C30702D00270401C96
:1003D000491E022904D3830702D50280801C891E8E
:1003E000E3E70022EEE70022DFE70000F8B507466A
:1003F0000B4639461943890713D1164CE601042AE6
:100400000FD302CB0D1B8D43354202D102C0121F08
:10041000F5E7CBB20370401C521E002B13D0090A23
:10042000F7E7002A14D01978521E5B1C0170401C9B
:10043000002908D0002A0BD01978521E5B1C0170CD
:10044000401C0029EDD1002A02D01146FFF7C9FF58
:100450003846F8BD01010101002203098B422CD36B
:10046000030A8B4211D300239C464EE003460B4304
:100470003CD4002243088B4231D303098B421CD366
:10048000030A8B4201D394463FE0C3098B4201D358
:10049000CB01C01A524183098B4201D38B01C01A90
:1004A000524143098B4201D34B01C01A5241030907
:1004B0008B4201D30B01C01A5241C3088B4201D3B6
:1004C000CB00C01A524183088B4201D38B00C01A63
:1004D000524143088B4201D34B00C01A5241411A8A
:1004E00000D201465241104670475DE0CA0F00D06D
:1004F0004942031000D34042534000229C46030966
:100500008B422DD3030A8B4212D3FC22890112BAEB
:10051000030A8B420CD3890192118B4208D38901C3
:1005200092118B4204D389013AD0921100E08909DB
:10053000C3098B4201D3CB01C01A524183098B42BC
:1005400001D38B01C01A524143098B4201D34B01A5
:10055000C01A524103098B4201D30B01C01A524108
:10056000C3088B4201D3CB00C01A524183088B428F
:1005700001D38B00C01A5241D9D243088B4201D318
:100580004B00C01A5241411A00D201466346524103
:100590005B10104601D34042002B00D54942704702
:1005A00063465B1000D3404201B50020C046C04600
:1005B00002BD7047704770470246C80FC0078143AD
:1005C0004B0030B54B405B009B0D20D01923DB0660
:1005D000C91801231B05994220DB0324A407042525
:1005E0001346AB400BD3002B04D1EB0613409B000A
:1005F000E34204D401246407002312195941FF2364
:100600001B0599420BD2C9000143500F09E0CB02F0
:1006100004D501430803024305D0054830BDFF213E
:10062000C905084330BD084607210905884330BD88
:100630000000C07FF0B50C46871A9C410D46861A13
:100640009D4103D2C01BA141D21963410D0D1F0D65
:10065000C94EEC1BAE435CD07F057F0D0026002FFA
:1006600051D02D05AC46A943DD020123ED0A1B053F
:100670001D4320231B1B24D41746E7403818714123
:100680002F46E740CC199D402818314661410C0D9A
:1006900027D161449A4013D50023401C5941520090
:1006A0000ED14008400001224B005205D34207D32F
:1006B00005204007C14201D5B04900E0B0493046AD
:1006C000F0BD6B00002A00D001229A181F23203CA5
:1006D0001B1B01D5002302E0E540281871410C0DD9
:1006E000D7D0012424050919C407CD0740084908BB
:1006F000E40F28436144002CD5D00024401C614104
:100700009A40D0D1CDE76A05520DD9D1C90FC9079A
:10071000D5E79C4D4E00002801D0012400E00024C4
:1007200034195F00002A01D0012600E00026BE191E
:10073000954FAC420CD8AE420AD8B44206D001253F
:100740006D05EC42BCD010461946F0BD9942FCD074
:1007500000203946F0BDF0B51FB40C460F46811A93
:100760009F412546861A9D4106D20125ED076F401F
:10077000401ABC4152187B41210D1E0D8D1BAC4609
:100780007D4D8D437ED075056D0D7CD00D05AE463B
:10079000AC431B031B0B794D52429D4120236646FF
:1007A0009B1B14D31746F74038180026009074415D
:1007B00060462F460741E41900989D40281866417D
:1007C00016D4714671189A4025D5012320E093185C
:1007D0002A466A415200002B00D0521C1E23203EA4
:1007E0009B1B002B61DD3541EE1728186641E8D5CB
:1007F000001876415B1C9A4000D3401C4B05F3184F
:100800001524E34010D3002B52D071467118D30F3A
:10081000C01802D3491C05B0F0BD0123DB079A4282
:10082000F9D140084000F6E701225205B21801D183
:10083000002853D00123CC0ADB029943891E002AE9
:1008400008D1020C03D0020C0004103902E0024669
:10085000002020390023550B05D112020823550B27
:1008600001D152010D23550C01D112011B1DD50CD4
:1008700001D192009B1C150D01D152005B1C20255B
:10088000EE1A01E02CE022E00546F54015439840C1
:10089000CA1AE10769181305C918002ABBDA032030
:1008A00040070818C10FC9070FE071466118B2E789
:1008B000F10740080843711071444A000CD001232D
:1008C0005B059A42A7D2C90FC9070020A3E74905D3
:1008D000490D26D1002001E00028F4D100219AE73B
:1008E000284D6600002801D0012100E00021711888
:1008F0005F00002A01D0012600E00026BE19224F29
:10090000A94210D8AE420ED8B14208D001256D05DB
:10091000E94206D01946A802414010467BE79C42B6
:1009200001D0214677E70020394674E710B50C4620
:100930005C4005D50124E4076340FFF70CFF10BDC0
:10094000FFF778FE10BD30B40C465C4004D501249E
:10095000E407634030BC6DE630BCFCE670B50124B2
:10096000E40761400D465D4002D4FFF763FE70BDB1
:100970006340FFF7F0FE70BDFF0700000000F0FFCE
:100980000000F07F0000E0FF0000F87FF0B5F94DB7
:100990000C091E092C402E402F468BB0A7437DD05A
:1009A000B543FCD0002E7AD0002CFCD00D465D4023
:1009B000ED0F2543AC1BFF25AD0464190894C50257
:1009C000440DC9022143500DDC0204430120C0073D
:1009D00001430443D2020191200C110C00958C4676
:1009E000010423468B430A9161460904E24D8A4380
:1009F0000991010A7D4449198039097805464D431A
:100A000001266D18F605751B6943C90C640B891C1A
:100A10004C436418B5012C1B250C2E04B4434C43E5
:100A20004D43210C691889090591009DE90701D002
:100A30000121C90704912C4601996708CD072F436E
:100A40004C08059DE10B4D432D0C29466646754328
:100A500002950D4645432E46029D7D1BB4410095EF
:100A60000D465D4301942C0C2F040D465543AE46B4
:100A70002D0C3D43029503947546049C2D04641B84
:100A8000049406D2029C039D641C002675410395C4
:100A9000029401AC70CC009F7D1B01E03EE162E15D
:100AA000B44109040095079101940599A408614394
:100AB000090C0C464443650BE7040C466646744338
:100AC000A646640B3C43039502947446049DE404DB
:100AD0002C1B049406D2029C039D641C00267541C5
:100AE0000395029401AC70CC009F7D1BB44101942E
:100AF0000C465C430095650FE7000C465443A64640
:100B0000640F3C43039502947446049DE4002C1B3F
:100B1000049406D2029C039D641C00267541039533
:100B2000029401AC70CC009F7D1BB441AE09AF06AE
:100B3000049DC900AD092F43049DA406AD0604958C
:100B4000079D344369180791059DE10B4D432D0C1A
:100B500029466646754302950D4645432E46029D3D
:100B60007D1BB44100950D465D4301942C0C2F0470
:100B70000D465543AE462D0C3D43029503947546F4
:100B8000049C2D04641B049406D2029C039D641CE7
:100B9000002675410395029401AC70CC009F7D1B2B
:100BA000B44101948C050694079C890A611800954C
:100BB0000791019C0599A4086143090C0D46454322
:100BC000680BEF040D46644665436C0B3C43049F81
:100BD000ED047D1BAC4602D20025641C6841009EDA
:100BE000019D371B85410846584301950C46460F29
:100BF000C5005443600F28436546E4002C1B02D215
:100C00000025401C6E41019D3F1AB5412846BD0993
:100C1000800628438446A009BF064E020699A40612
:100C200076180743079D002068410A9907901943E9
:100C30000020099B00906046FF1913434041E20FDA
:100C400064003A43A4460446D71A8C41A04203D913
:100C50000120009020463A46C70F94184041624652
:100C6000D20F2243644664000494009CBE46640094
:100C7000D71AA446044602978C417746002F01D12B
:100C8000A04204D96046401C8446029A2046C40F04
:100C9000A64694184041049A0546D20F2243644662
:100CA0006400D31A8D417146002901D1A84202D9AE
:100CB00028461A46641C10430122002800D016431F
:100CC00061020020079B891904465C410223002C25
:100CD00002DB491813466441089DCE0A2D145D19A4
:100CE0004B056705E10A2C050D1908993E43C90714
:100CF0006940002B08D0934006D30022761C514156
:100D0000002B01D1760876001C4A002D43DB1542EA
:100D100041D0AA433FD030460BB0F0BD06180D4677
:100D20004D41174C7642AC411AD395181C465C4194
:100D3000134A6D42A24113D3012252054C00D44202
:100D40000AD15C00D4420BD04B4002D59202114331
:100D5000E2E749004908DFE75940C90FC90718E031
:100D600000200849D8E7054801420DD10342F7D0D9
:100D7000F2E700000000FF07C86400000000F07FF9
:100D80000000E0FF0000F87F114859400143C01205
:100D900041400020C0E70123089A9B069A4205DCE7
:100DA000032252078918C90FC907B5E70522520760
:100DB0008918074A1143D2125140ADE770B5154664
:100DC0001C4602460B4628462146FFF7DFFD70BD54
:100DD000FFFFFF7F0346CA02400D10B510430A15FE
:100DE00004D00124E4072043002A05DB0A4CA21AA0
:100DF00004D4D040FF2A00DD002010BD4A00002BA3
:100E000001D0012000E00020101801225205D0423C
:100E1000F2D8C817C04310BD1E0400001F22030CE7
:100E200002D10F22000402D0030E03D004E0002000
:100E3000014670470002083A030F01D10001121F5A
:100E4000830F01D18000921E002801DB4000521E5A
:100E5000120551184205C012411810467047C10FC3
:100E6000C90700D04042012292071143D6E7012171
:100E70008907D3E7F0B58B4C0F09254689B0BD43F0
:100E80007BD01D092646AE43FAD00E465E40274071
:100E9000F60F3E43254071D024012142FBD0FF24B0
:100EA000AD19A4042D1B039501252D05DB02DB0ADA
:100EB000C9022B43C90A29431E010901040F130F5C
:100EC000050121431701880B820391432D098C46AC
:100ED000A90B1E438A039543B30B9A0396433F091C
:100EE000BA0B9403A74302962E467E430497B64658
:100EF0004E19D7190C460196544305977E43371B6C
:100F00007646BF1B3601B646BE0B361900967646AE
:100F1000BC043719009C01D3641C00946400002FAA
:100F200001D001263443029E049F754366467E43EA
:100F30000496760034196E0034190094029C019EC8
:100F40001C196643751BAE46069465464519059CFB
:100F500005956C43594375460891691A0191049EA1
:100F600001465143A41B0491611A009C0791E106BC
:100F700005D061090122114302E072E06EE06109CF
:100F8000089D00272C0A2D066918049D7C412A0A19
:100F90002D066918019D6241AC0DAD026D185441DA
:100FA000079A910D920255196141029A644658437D
:100FB0005443069B059A5A43121A131B9A0E9B011F
:100FC0005B187A41010B0005C3185141220A200623
:100FD00044195A419A4200D2491C012040028142E0
:100FE00003D315230226F64302E014230326F64317
:100FF0002020C51AA9401746AF40DA400A432046D0
:101000000399D8400914731819055118039A3843E5
:10101000D2075140AC4009D00122944006D30022AF
:10102000401C5141002C01D1400840001E4A93420F
:1010300012D3012203989206904207DB0520400755
:1010400009181A480143C012414004E00320400738
:101050000818C10FC907002009B0F0BD0020F10732
:10106000FAE705180C464C4111486D42A04115D3D2
:1010700094181A465A410E48644290410ED30120FA
:101080004A004005824209D35A00824206D35940A1
:10109000C90F084AC90700201143DDE700200649AF
:1010A000DAE700000000FF07FE070000FFFFFF7FF8
:1010B0000000E0FF0000F07F0000F87F0121C9057B
:1010C0000123411842001B06D3185B0E0AD0C11041
:1010D0000722D206891840075242D14201D5520058
:1010E00089187047090208D50146002A03D0C10FAC
:1010F000C9070020704710467047420202D0002006
:1011000002497047072109050143F4E70000F87F11
:101110000102C21504D00123DB071943002A0ADBB0
:101120009E239A1A02D40846D0407047FF224100FD
:101130001206914201D900207047C017C043704782
:1011400010B500F0EDF8006810BD10B5044600F0D1
:10115000E7F8046010BDFFB504460D4681B02430A9
:1011600000902168880604D51022E069914321602F
:1011700000E00120A84201DD471B00E000270498A1
:10118000A1697A191018081AA0612078C00602D443
:101190002046C046C046002608E003986268A16861
:1011A000805D9047206A401C761C2062049886422D
:1011B000F3DB2078C0060AD52046C046C04606E0CC
:1011C0006268A16830209047206A401C206238463F
:1011D0007F1E0028F4DC07E000986268A168405D8B
:1011E0009047206A401C206228466D1E0028F3DCD0
:1011F0002046C046C0462078000602D5022005B031
:10120000F0BD0120FBE70000084B70B50D467B44A4
:1012100000F08FF80446284604F0D0FA002802D0E7
:101220000020C04370BD204670BD0000B3450000E3
:10123000F8B5224C4E00069DA6420AD8A64201D11E
:10124000002806D15E00A64203D8A6420AD1002A91
:1012500008D00D24240425422CD02946002000F07B
:101260007BF8F8BD0C461C430CD4994202D0EFF336
:101270000080F8BD904202D0EFF30080F8BDEFF39C
:101280000080F8BD09242407E5008B4206D0EFF367
:101290000080A043591A06D2284304E0101A05D34F
:1012A000EFF30080A04380F30088F8BDEFF30080E7
:1012B000A043F1E7009500F067F8F8BD0000E0FFFB
:1012C00070B505464800440D124B0020002C0AD092
:1012D000634008D09A4206DA6642B24203DD120544
:1012E0004019514170BD002C08D0002B09D0C90F06
:1012F000C907002AF6DB084A114370BDC90FC907A8
:1013000070BD28460A03104302D00020034970BD77
:10131000284670BDFF0700000000F07F0000F87F46
:10132000004870478001002001694A1C026108786A
:10133000704700B58FB002910021059105490193D6
:1013400079440391114604906846FEF7A7FF0FB059
:1013500000BD0000E5FFFFFFCA0211D54A03520F8E
:10136000002A04D0C803C043012188407047054AC1
:10137000EFF3008108010009104380F300887047F3
:10138000002070470000003010B500200249029A8A
:1013900000F0ADF810BD00000000F87FF0B53D4B47
:1013A00002460C461C400020002C63D03A4D8B4373
:1013B00066D000296BDB0B0D1D05A94301252D050A
:1013C00029430124FD33E34001D392184941FF33FF
:1013D00081339C468B02940D0121234389074C42A3
:1013E000920200271B198C105D1A04D42D1B02D405
:1013F0002B466500491992185B416408F4D15C1AC8
:1014000008D40125ED07EE175519744102D42A4678
:101410002346491C94185B41012292071D46E61B96
:101420008D4106D4B61A854103D42B465500344667
:101430007F1924195B415208802AEFD1234300D041
:10144000022338460A22D04001D3012213438A05E1
:1014500010436246890A12058918002B09D001221F
:10146000D34002D30022401C5141002B01D140083F
:101470004000F0BD0B03134307D0C90FC907F0BDEF
:101480000803104303D1002901DB1046F0BD002002
:101490002946F0BD0000F07F0000F87F004870474B
:1014A000800100207546FFF7F9FFAE46050069464A
:1014B0005346C008C000854618B020B5FEF798FE18
:1014C00060BC00274908B6460026C0C5C0C5C0C5D7
:1014D000C0C5C0C5C0C5C0C5C0C5403D49008D46DA
:1014E00070470446C046C0462046FEF73CFE10B595
:1014F0000C461107090F092904D00A290AD0082926
:101500000CD104E011460820FFF726FF06E0510643
:1015100006D501E0510601D50120C007214610BDC6
:10152000D10607D501010909CC084907000E0006BC
:10153000044309E0410F20024907000A0143200E3D
:1015400000061D22D14101430846E7E70149182062
:10155000ABBEFEE72600020070470000CA07D20FAC
:10156000002A05D00D4A926802239A430B4B9A60D9
:1015700002220A40002A05D0084A126902239A432F
:10158000064B1A6104220A40002A05D0034A526918
:1015900002239A43014B5A617047000040000E40FD
:1015A000CA07D20F002A05D00D4A926802231A43B7
:1015B0000B4B9A6002220A40002A05D0084A1269A1
:1015C00002231A43064B1A6104220A40002A05D05E
:1015D000034A526902231A43014B5A6170470000C3
:1015E00040000E4008498969C807C00F002802D092
:1015F0000121064A117004498969C908C9000143DB
:10160000014A91617047000040000E4062000020D6
:1016100010B53E2308220021174800F031F8164883
:1016200040308068032109048843134940318860B1
:1016300000BF08468068012108430F494031886097
:1016400000BF0D484030806901210904084000288E
:10165000F7D009484030406AC007C00F0028F0D0DA
:1016600000BF01210448FFF79BFF1D20012181409D
:10167000024A116000BF10BD00000E4000E100E012
:1016800030B504460C4880680125AD02A8430843E4
:10169000094DA860284680680C25A8431043064DD4
:1016A000A8602846806803252D04A843024DA86041
:1016B0002846C36030BD000040000E4001B59CB01C
:1016C000142117A8FEF78FFE142112A8FEF78BFE37
:1016D0000120FE4948620020FD494861FB49403134
:1016E000C86288624862FF20F53000F09BFD01214E
:1016F000F848FFF755FFF748403080680121C902DC
:101700000843F4494031886000BFF348007800285E
:10171000FBD00020F0490870119044E00121ED4811
:10172000FFF73EFFEB48403080680121C9020843C3
:10173000E8494031886000BFE74800780028FBD0C6
:101740000021E5480170E348179940690005000D44
:1017500009181791DF49189809690905090D4118F9
:101760001891DC481999C0680005000D09181991F5
:10177000D8491A9889680905090D41181A91D54860
:101780001B9940680005000D09181B91D148403095
:1017900080680121C9028843CE4940318860119890
:1017A000401CC1B2119111980A28B7DB179908465D
:1017B0000B91FFF75CFBC94AC94B0D910C90FFF7E9
:1017C00059FB0022C74B0F910E90FFF7DFF81191E4
:1017D0001090FEF7F1FE1290189908460B91FFF752
:1017E00046FBBE4ABE4B0D910C90FFF743FB002217
:1017F000BC4B0F910E90FFF7C9F811911090FEF7B6
:10180000DBFE1390199908460B91FFF730FBB34AA2
:10181000B34B0D910C90FFF72DFB0022B14B0F91B4
:101820000E90FFF7B3F811911090FEF7C5FE1490DB
:101830001A9908460B91FFF71AFBA84AA84B0D917D
:101840000C90FFF717FB0022A64B0F910E90FFF7AD
:101850009DF811911090FEF7AFFE15901B99084668
:101860000B91FFF704FB9D4A9D4B0D910C90FFF7E8
:1018700001FB00229B4B0F910E90FFF787F811910F
:101880001090FEF799FE16901299109196491098B3
:1018900005F062FA1190FFF73BFC1C990860934831
:1018A0000078FF2877D091484078FF2873D08F4880
:1018B00040780190FFF7DBFA00228D4B03910290F4
:1018C000FFF764F800228B4B05910490FFF7D2FAE2
:1018D00009910890139908460591FFF7EFFB0791CE
:1018E0000690099B089A04F0ABF80D910C907F4884
:1018F00000780990FFF7BBFA0B910A900D9B0C9AA8
:10190000FFF7B8FA00227C4B0F910E9005F0BEF95C
:1019100001D2012000E00020002802D00020014672
:1019200031E0724840780190FFF7A1FA0022704B35
:1019300003910290FFF72AF800226E4B0591049064
:10194000FFF798FA09910890139908460591FFF757
:10195000B5FB07910690099B089A04F071F80D9168
:101960000C906248017808460991FFF780FA0B91C4
:101970000A900D9B0C9AFFF77DFA00225E4B0F91A7
:101980000E90FEF7E0FF11911090FFF723FA1C99DB
:1019900048603FE0FFE7139908460991FFF78EFB87
:1019A0004E4A5242554B0B910A9004F049F80022DE
:1019B000534B0D910C90FFF75DFA00224E4B0F91A7
:1019C0000E9005F063F901D2012000E0002000280C
:1019D00002D00020014617E0139908460991FFF74D
:1019E0006DFB3E4A5242454B0B910A9004F028F899
:1019F0000022434B0D910C90FFF73CFA00223E4B26
:101A00000F910E90FEF79FFF11911090FFF7E2F9F2
:101A10001C99486035488078FF2873D03348C078D7
:101A2000FF286FD03148C0780190FFF720FA0022DC
:101A30002F4B03910290FEF7A9FF00222D4B059139
:101A40000490FFF717FA0991089014980590FFF792
:101A500035FB07910690099B089A03F0F1FF0D9161
:101A60000C90224880780990FFF701FA0B910A90B8
:101A70000D9B0C9AFFF7FEF900221F4B0F910E9061
:101A800005F004F901D2012000E00020002802D076
:101A9000002001464FE01548C0780190FFF7E7F9B4
:101AA0000022134B03910290FEF770FF0022114BAE
:101AB00005910490FFF7DEF9099108901499084602
:101AC0000591FFF7FBFA079106901CE000420050D9
:101AD0000043005000000E4062000020666666660B
:101AE00066660A400000E4400000FA4474000020EA
:101AF000000024400000F0BF000038409999F1BF79
:101B0000000044401EE0099B089A03F099FF0D91E4
:101B10000C90E448817808460991FFF7A8F90B91E9
:101B20000A900D9B0C9AFFF7A5F90022DE4B0F914E
:101B30000E90FEF708FF11911090FFF74BF91C99DA
:101B400088603CE0149908460991FFF7B7FAD74A34
:101B5000D74B0B910A9003F073FF0022D54B0D91E8
:101B60000C90FFF787F90022CF4B0F910E9005F0F4
:101B70008DF801D2012000E00020002802D00020D2
:101B8000014616E0149908460991FFF797FAC74AEB
:101B9000C74B0B910A9003F053FF0022C54B0D91E8
:101BA0000C90FFF767F90022BF4B0F910E90FEF7E4
:101BB000CAFE11911090FFF70DF91C998860B94881
:101BC0000079FF2877D0B7484079FF2873D0B5480F
:101BD00040790190FFF74BF90022B74B0391029037
:101BE000FEF7D4FE0022B54B05910490FFF742F9B1
:101BF00009910890159908460591FFF75FFA07913A
:101C00000690099B089A03F01BFF0D910C90A548C4
:101C1000017908460991FFF72AF90B910A900D9B6B
:101C20000C9AFFF727F900229F4B0F910E9005F0B9
:101C30002DF801D2012000E00020002802D0002071
:101C4000014630E0974840790190FFF710F90022F3
:101C5000994B03910290FEF799FE0022974B059154
:101C60000490FFF707F90991089015990846059126
:101C7000FFF724FA07910690099B089A03F0E0FE0B
:101C80000D910C90874800790990FFF7F0F80B91BF
:101C90000A900D9B0C9AFFF7EDF80022824B0F91F2
:101CA0000E90FEF750FE11911090FFF793F81C99DB
:101CB000C86037E0FFE7159908460991FFF7FEF97C
:101CC0007F4A804B0B910A9003F0BAFE7E4A7F4B0D
:101CD0000D910C90FFF7CEF80F910E90FFF77AF868
:101CE000182802D20020014616E0159908460991ED
:101CF000FFF7E4F9724A734B0B910A9003F0A0FED0
:101D0000714A724B0D910C90FFF7B4F80022664BAC
:101D10000F910E90FEF717FE11911090FFF75AF8F1
:101D20001C99C8605F480078FF2876D05D484078ED
:101D3000FF2872D05B48C0790190FFF798F8002225
:101D40005D4B03910290FEF721FE00225B4B059153
:101D50000490FFF78FF809910890169908460591AD
:101D6000FFF7ACF907910690099B089A03F068FE0B
:101D70000D910C904B4880790990FFF778F80B9102
:101D80000A900D9B0C9AFFF775F80022464B0F91B5
:101D90000E9004F07BFF01D2012000E0002000281B
:101DA00002D00020014630E03E48C0790190FFF7A4
:101DB0005EF80022404B03910290FEF7E7FD0022FF
:101DC0003E4B05910490FFF755F80991089016993C
:101DD00008460591FFF772F907910690099B089A4A
:101DE00003F02EFE0D910C902E4880790990FFF79C
:101DF0003EF80B910A900D9B0C9AFFF73BF80022DE
:101E0000294B0F910E90FEF79EFD11911090FEF759
:101E1000E1FF1C99086137E0FFE716990846099130
:101E2000FFF74CF9214A224B0B910A9003F008FE70
:101E30000022204B0D910C90FFF71CF80F910E9093
:101E4000FEF7C8FF182802D20020014616E01699B6
:101E500008460991FFF732F9144A154B0B910A9085
:101E600003F0EEFD0022134B0D910C90FFF702F8EA
:101E700000220D4B0F910E90FEF765FD1191109011
:101E8000FEF7A8FF1C990861002011494862012053
:101E9000104948610E494031C8628862486200209A
:101EA0001DB000BD74000020000038409A99999937
:101EB0009999F1BF00004440000024400000F0BFA9
:101EC000D122DBF97E6AF8BF6DE7FBA9F1E2494058
:101ED000004200500043005010B50D2002F0A8F958
:101EE000002404E0002007490855601CC4B2192CE6
:101EF000F8DB0D2002F0B0F9002002498876487620
:101F000010BD00003C0000202B48807F01280BD131
:101F10002949C8770846808B32284BDD002088830A
:101F200088770120887645E02348C07F012841D189
:101F300000202149C8770846407E042816DB084661
:101F400000782B2807D108464078572803D1084647
:101F50008078412807D0184800784F2806D11648C5
:101F600040784B2802D10120144908701248407E65
:101F700002281FDB1048407E801E0F49085C1D2888
:101F800008D10846407E401E085C0D2802D1012081
:101F90000B4908700848407E801E0749085C0D28E0
:101FA00008D10846407E401E085C0A2802D1012064
:101FB00004490870704700003C0000201400002015
:101FC000160000201500002070B504460D462A4674
:101FD0002146024803F052FA70BD0000000015408F
:101FE000C10F8900064A89184968C306DB0E012221
:101FF0009A401143C20F9200014BD21851607047B2
:102000000002005010B504461048006820430F49F4
:102010000860E007C00F002802D0012000F0EEF8B1
:1020200002202040002802D0022000F0E7F804201F
:102030002040002802D0102000F0E0F808202040C6
:10204000002802D0082000F0D9F810BD000200508E
:1020500010B502F0BBFF0148006810BD0000002071
:10206000FEB5002002901C48456AC00128400028A7
:1020700001D00020FEBD012040042840002801D0EE
:10208000164F00E0154F012000032840002801D022
:10209000022000E001200190032000022840060AEF
:1020A000002E01D1022408E0012E01D1042404E015
:1020B000022E01D1082400E01024A906890E203147
:1020C000794308462146FEF7C7F900900199FEF7CB
:1020D000C3F902900298CDE700020050001BB70040
:1020E0000420054908610548006850210843034958
:1020F000086030BF7047000000ED00E000020050B3
:1021000070B504460D461648C068102108400646C2
:10211000134800680421084311490860102000F0AA
:102120006DF80F480069C008C000C01D0C49086167
:102130000846C069000900012843C86108460069D3
:10214000C008C0002043086102F040FF002E05D106
:1021500003480068102188430149086070BD0000F1
:1021600000020050F0B50B46002100240025860334
:10217000360E002E0FD00603B60FB600114FF5191C
:1021800029688603370E8605F60EB7400E46BE4315
:10219000164331462960C600360F002E10D0460087
:1021A000B60FB600074F0C3FF4192168C600370F71
:1021B000C601F60EB7400E46BE431E4331462160AF
:1021C000F0BD00001C0200500A49096841430A4A58
:1021D0005161002191610521116100BF0649096922
:1021E0000122120411400029F8D00021024A116195
:1021F000704700000400002000E000E00146074AAC
:1022000005E01046521E002801DC002070470448FB
:10221000C06808408842F4D10120F7E760EA000076
:102220000002005010B504467D21C90061430846F4
:10223000FFF7CAFF10BD000001B5BEB0FE48407EEA
:10224000401EFD49085C0D2805D10846407E801ED1
:10225000085C1D2801D003F089FA3E9800783028E8
:1022600001D101F0C1F91CDC14287DD00ADC012861
:1022700036D0022879D0032878D0112801D001F077
:102280005EFD09E1162801D101F01AF9172801D1E4
:1022900001F04BF9182801D101F0A4F91928EED169
:1022A000FEE3512801D101F0E6FB0EDC312801D11B
:1022B00001F0C3FA322801D101F0FBFA412801D123
:1022C00001F03DFB5028DAD1EBE3522801D101F0B7
:1022D000F3FB532801D101F017FC6028CFD1F3E3C1
:1022E00000203B903C903D9039903A90D248407805
:1022F0003890D1484078042803DCCF484078012842
:1023000002DA03F033FABAE704F010FC3BA801F05C
:10231000AFFE012138A80171389941713898400009
:102320003BA9085A64213790FEF7A0F83030C1B2BB
:1023300038A881712E21C171389840003BA9085AF4
:1023400064213690FEF792F837910A213798FEF70C
:102350008DF83030C1B238A80172389840003BA9DE
:10236000085A0A21379002E0F2E31CE05BE0FEF736
:102370007DF8303138A84172562181722421C17212
:102380007D20C000FFF74EFF082139A8FFF71CFE93
:10239000FF20F530FFF746FFA748006A37908047D7
:1023A00003F05CF96BE700203D903C90A248007977
:1023B0001D2803D1A04840790D2810D000203D9061
:1023C00007E000219C4A3D9811543D98401CC0B242
:1023D0003D903D981928F4DB03F0C8F94FE704F06D
:1023E000A5FB7D20C000FFF71DFF9348401C04F0B3
:1023F000E1F800203D9007E000218F4A3D981154FC
:102400003D98401CC0B23D903D981928F4DB022154
:1024100038A801742421417402213CA8FFF7D4FD9F
:1024200003F01CF92BE700203D903C908248407857
:102430001D2803D1804880780D2810D000203D90C1
:1024400007E000217C4A3D9811543D98401CC0B2E1
:102450003D903D981928F4DB03F088F90FE704F06C
:1024600065FB7D20C000FFF7DDFE01207349486257
:1024700000207349486171494031C86288624862EE
:10248000032138A801742421417402213CA8FFF7DC
:102490009BFD03F0E3F8F2E6674840783D9069A0C1
:1024A00000683C9000203B903A9039903D9810286D
:1024B00002DC3D98012802DA03F058F9DFE604F067
:1024C00035FB3D98401E2E90C017810F2E9808189E
:1024D0008005000E2D9003F0EBFFFF20F530FFF795
:1024E000A1FE3D98401EC0B22E9004F02DFB64204A
:1024F000FFF798FE5448006A2E9080470A20FFF7A5
:1025000091FE04213CA802F0EDFCFF20F530FFF71E
:1025100089FE00203B9032E002F03EF84A48807E7F
:10252000012825D14848407E0C2802D100203B904C
:1025300029E04548407E0D281AD143488078062876
:1025400015D14148C078822811D100202E900BE08F
:102550002E98401D3C49095C2E98001D3A4A1154A2
:102560002E98401CC0B22E902E980728F0DB0AE06F
:102570003B98401C80B23B900220FFF753FE33494A
:102580003B988842C8DB00BF3D98401E2E90C01784
:10259000810F2E9808188005000E2D9003F06CFF17
:1025A0000020359036903790389029480068349054
:1025B0000A213D98FDF75AFF3030C1B230A841746E
:1025C0000A213D98FDF752FF303130A88174142262
:1025D0001F49091D2FA8FDF7DBFD3D98022808D0F3
:1025E0003D98062805D03D98092802D03D980D2831
:1025F00034D13D98022802D101203A9010E03D9854
:10260000062802D102203A900AE03D98092802D11A
:1026100003203A9004E03D980D2801D104203A901F
:102620002FA8FFF74BF83A9880002FA908582328C5
:1026300014D9FF212D310DE03C0000200042005054
:10264000004300508006027818000020B80B0000FC
:10265000086E00003A9880002FAA1150FA48C079FD
:102660002E287DD1F84800793038F8494143F648A2
:1026700040793038F64A50430918F34880793038A9
:102680007D22D20050430918EF48007A3038642286
:1026900050430918EC48407A30380A225043081851
:1026A000E949897A4018303839903D98401E4000F9
:1026B000E849085C2B2861D13D98401E4000401C31
:1026C000095C39980818399039980F2805D9399834
:1026D000322802D239980A383990399828280AD2F3
:1026E0003A9881002FA84058242804D23A988100B3
:1026F0002FA840583990D5493998FDF7ADFE3030B4
:10270000D1490871D1493998FDF7A6FE2E91D049DB
:102710002E98FDF7A1FE3030CB494871CC4939984D
:10272000FDF79AFE2E917D21C9002E98FDF794FEAB
:102730003030C54988717D21C9003998FDF78CFE7C
:102740002E9164212E98FDF787FE3030BE49087225
:1027500064213998FDF780FE2E910A212E9800E021
:10276000E9E0FDF779FE3030B74948720A2139981F
:10277000FDF772FE3031B4488172E6E13D98401EAB
:102780004000B449085C2D2876D13D98401E400099
:10279000401C095C3998814264D83D98401E400035
:1027A000401CAC49095C3998401A399039980F2877
:1027B00005D93998322802D239980A38399039988F
:1027C00028280ED23A9880002FA90858002808D04F
:1027D0003A9880000858242803D23A988000085874
:1027E00039909A493998FDF737FE3030964908718B
:1027F00096493998FDF730FE2E9195492E98FDF7B0
:102800002BFE30309049487191493998FDF724FEEC
:102810002E917D21C9002E98FDF71EFE30308A4989
:1028200088717D21C9003998FDF716FE2E9164212B
:102830002E98FDF711FE30308349087264213998D3
:10284000FDF70AFE2E910A212E98FDF705FE303085
:102850007D4948720A213998FDF7FEFD30317A48EA
:10286000817272E17CA02E9007227748001D2E997C
:10287000FDF7BCFD69E1FFE739980F2805D93998C4
:10288000322802D239980A3839903998282810D23B
:102890003A9880002FA9085800280AD03A98810059
:1028A0002FA84058242804D23A9880002FA908580D
:1028B000399066493998FDF7CFFD3030624908718B
:1028C00062493998FDF7C8FD2E9161492E98FDF7B0
:1028D000C3FD3030C1B25C4841715D493998FDF7A4
:1028E000BBFD2E917D21C9002E98FDF7B5FD30303E
:1028F000554988717D21C9003998FDF7ADFD2E91AC
:1029000064212E98FDF7A8FD30304F4908726421EC
:102910003998FDF7A1FD2E910A212E98FDF79CFD17
:102920003030494948720A213998FDF795FD303118
:102930004548817209E14448C0792D2872D13A98FE
:1029400081002FA84058242848D23A9880002FA907
:10295000085839903D493998FDF77EFD30303A49A5
:1029600008713A493998FDF777FD2E9138492E982C
:10297000FDF772FD30303449487135493998FDF71B
:102980006BFD2E917D21C9002E98FDF765FD30303D
:102990002D4988712E212C48C1717D21C90039989B
:1029A000FDF75AFD2E9164212E98FDF755FD30302C
:1029B0002549087264213998FDF74EFD2E910A21B0
:1029C0002E98FDF749FD30301F4948720A21399889
:1029D000FDF742FD30311C488172B6E01A48407A5A
:1029E0003038030002F08EFD0A8F90909090061709
:1029F000284B7A901448807A302802D0312808D1A8
:102A000006E033211048417231200F49887200E0FE
:102A100000BF00BF79E00C48807A302803D031280D
:102A200008D101E084E005E03320074948723220F4
:102A3000887200BF00BF68E00348807A30280FD05A
:102A400031281AD113E0000018000020A0860100F0
:102A500010270000600100204552522D2D31380012
:102A60003320FE4948723321FC48817205E033204F
:102A7000FA4948723420887200BF00BF45E0F74829
:102A8000807A3038030002F03DFD05040D13192053
:102A900027003321F14841723520F04988721BE04C
:102AA000FDE3FDE33320ED4948723620887213E0E0
:102AB0003320EA494872372088720DE03320E74915
:102AC00048723820887207E0EBE33321E348417213
:102AD0003920E249887200BF00BF16E0DF48807AE3
:102AE000302802D031280CD105E03420DB4948726F
:102AF0003120887205E03420D8494872322088722B
:102B000000BF00BF01E000E000BF00BF0B202E901F
:102B10000AE02E98401ED149095CD04A2E981154E3
:102B20002E98401EC0B22E902E980328F1DC0CE0A7
:102B3000CA48C0792D2808D0C9A02E900822C748BD
:102B4000001D2E99FDF752FC00BF00202E900CE0D6
:102B500024E0C2492E98001D095C2E98C01C34AA9E
:102B600011542E98401CC0B22E902E980728F0DBEE
:102B70001D2130A881760D21C1760C2134A8FFF7E4
:102B800023FA0020B849C8620021B74881620020BA
:102B9000B5494862086202F061FD1FE400203D90E3
:102BA000B42110A8FDF71FFCB0480F9000200E9034
:102BB0000D90AFA000680C9000200B900A90ADA083
:102BC00000680990002008900790AB48807C1D2881
:102BD00003D1A948C07C0D2810D002F0C7FD002009
:102BE000069007E00021A44A069811540698401C5C
:102BF000C0B2069006981928F4DB13E403F096FFA0
:102C00009D48407801029C488078081880B20F9057
:102C10000020069008E098490698095C10AA115413
:102C20000698401CC0B2069006981228F3DB0020DC
:102C300008A90876069015E006990F980841C00784
:102C4000C00F00280AD0012008A90876002003F050
:102C50002FFC4B20C000FFF7E5FA06E00698401C69
:102C6000C0B2069006980428E6DB00BF08A8007EE4
:102C700001280DD1002003F0E9FF0A20FFF7D2FA66
:102C800004210CA802F02EF97C480088FFF7CAFA4C
:102C900000200B90BFE30B98032841DA00210EAA15
:102CA0000B98401C115400200A901EE00B988000E5
:102CB000001D0A9941180F980841C007C00F00284D
:102CC0000FD001210EAA0B98401C11540B98401CE8
:102CD000C0B2069003F0ECFB4B20C000FFF7A2FA55
:102CE00006E00A98401CC0B20A900A980428DDDB6E
:102CF00000BF0EA90B98401C085C012810D10B984E
:102D0000401CC0B2069003F0A1FF3220FFF78AFA00
:102D100004210CA802F0E6F858480088FFF782FA70
:102D200000200A906CE3564800680121084354498A
:102D300008600B9881000A9809180F980841C0078D
:102D4000C00F002875D00B9881000A980818C0B2EF
:102D5000019003F0F9FE4148006A019080470A2083
:102D6000FFF760FA042109A802F0BCF80A20FFF777
:102D700059FA00200D9051E001F00EFC3748807E9A
:102D8000012831D10020354988760846407E0C283C
:102D90000BD101203449403188611E20FFF742FAEF
:102DA00000203149403188613DE02C48407E0D28AB
:102DB0001AD12A488078062815D12848C078822858
:102DC00011D1002001900BE00198401D2349095CBE
:102DD0000198001D214A11540198401CC0B2019075
:102DE00001980728F0DB1EE00D9800280FD0322153
:102DF0000D98FDF73BFB002909D1184841760421C5
:102E000009A802F06FF8FF20F530FFF70BFA0D98D4
:102E1000401C80B20D900120FFF704FA7D21C9000B
:102E20000D988842A8DB00BF00200C49487609E0D5
:102E3000FFE70BA0019007220848001D0199FDF74C
:102E4000D5FA00BF0B9881000A9808180A21484358
:102E50001230C0B20890242110AA13E018000020FC
:102E60003030302D3030300080420050FFFF000005
:102E7000FA0606FA800607733C0000206000002076
:102E800000400040089811540B9881000A980818D7
:102E9000401C0A210190FDF7E9FA3030C1B210AAB6
:102EA0000898401C11540B9881000A980818401C7F
:102EB0000A210190FDF7DAFA303110AA0898801C37
:102EC00011541422F74902A8FDF762F90B9881000A
:102ED0000A980818401C022814D00B9881000A9800
:102EE0000818401C06280DD00B9881000A98081875
:102EF000401C092806D00B9881000A980818401C2D
:102F00000D2835D10B9881000A980818401C02281A
:102F100002D1012007901CE00B9881000A98081844
:102F2000401C062802D10220079012E00B98810075
:102F30000A980818401C092802D10320079008E0CD
:102F40000B9881000A980818401C0D2801D1042014
:102F5000079002A8FEF7B2FB0798800002A9085864
:102F6000232805D9FF212D310798800002AA11508E
:102F7000CD48C0792E287DD10420019018E0019819
:102F8000072811D0C8490198085C302803DB019854
:102F9000085C392808DDC5A000900722C248001D42
:102FA0000099FDF723FA06E00198401CC0B2019099
:102FB00001980B28E3DB00BFBB48C0792E287DD1E8
:102FC000B94800793038BB494143B7484079303877
:102FD000B94A50430918B448807930387D22D2006C
:102FE00050430918B048007A303864225043091819
:102FF000AD48407A30380A2250430818AA49897AE5
:10300000401830383D900B9881000A98081840000D
:10301000AA49085C2B2865D10B9881000A980818EA
:103020004000401CA549095C3D9808183D903D981A
:103030000F2805D93D98322802D23D980A383D9094
:103040003D981E2809D20798800002A90858142824
:1030500003D20798800008583D9096493D98FDF7A7
:10306000FBF930309049087192493D98FDF7F4F929
:10307000019100E026E190490198FDF7EDF930302B
:10308000894948718C493D98FDF7E6F901917D2108
:10309000C9000198FDF7E0F93030834988717D213E
:1030A000C9003D98FDF7D8F9019164210198FDF719
:1030B000D3F930307C490872642100E07AE13D9810
:1030C000FDF7CAF901910A210198FDF7C5F93030E1
:1030D000754948720A213D98FDF7BEF930317248B2
:1030E000817267E10B9881000A98081841007348C3
:1030F000405C2D2878D10B9881000A980818400070
:10310000401C6E49095C3D98814263D80B98810050
:103110000A9808184000401C6849095C3D98401A0C
:103120003D903D980F2805D93D98322802D23D9810
:103130000A383D903D981E280AD20798810002A8BF
:1031400040581E2804D20798810002A840583D909C
:1031500058493D98FDF780F9303053490871554979
:103160003D98FDF779F9019153490198FDF774F9FC
:103170003030C1B24C4841714F493D98FDF76CF970
:1031800001917D21C9000198FDF766F9303046496B
:1031900088717D21C9003D98FDF75EF90191642198
:1031A0000198FDF759F930303F49087264213D9884
:1031B000FDF752F901910A210198FDF74DF93030E0
:1031C000394948720A213D98FDF746F930313648B1
:1031D0008172EFE03A48019007223348001D0199BF
:1031E000FDF704F9E6E0FFE73D980F2805D93D9883
:1031F000322802D23D980A383D903D981E280AD2C6
:103200000798800002A908581E2804D20798810058
:1032100002A840583D9027493D98FDF71DF93030F0
:103220002149087123493D98FDF716F9019122497A
:103230000198FDF711F93030C1B21B4841711E49A8
:103240003D98FDF709F901917D21C9000198FDF72D
:1032500003F93030C1B2144881717D21C9003D9815
:10326000FDF7FAF8019164210198FDF7F5F8303087
:10327000C1B20D48017264213D98FDF7EDF801914E
:103280000A210198FDF7E8F83030074948720A2111
:103290003D98FDF7E1F83031034881728AE0A2E100
:1032A00093E3F3E3206E0000180000204552522DF6
:1032B0002D313900A0860100102700006001002098
:1032C000582A0000FE4880792D2866D10798800092
:1032D00002A9085824284ED20798800008580028D0
:1032E00049D00798810002A840583D90F5493D9883
:1032F000FDF7B2F83030C1B2F1480171F1493D98A3
:10330000FDF7AAF80191F0490198FDF7A5F83030D2
:10331000C1B2EB484171EC493D98FDF79DF8019130
:103320007D21C9000198FDF797F83030E449887194
:103330002E20C8717D21C9003D98FDF78DF80191BF
:1033400064210198FDF788F83030DD490872642166
:103350003D98FDF781F801910A210198FDF77CF86D
:103360003030D74948720A213D98FDF775F8303161
:10337000D34881721EE00B2001900AE00198401EA4
:10338000CF49095CCE4A019811540198401EC0B241
:10339000019001980328F1DC0CE0C948C0792D2880
:1033A00008D0CAA001900722C548001D0199FDF769
:1033B0001DF800BF002001900DE00198001DC049DC
:1033C0000A5C0898C01C0199401810A90A54019879
:1033D000401CC0B2019001980728EEDB002001904C
:1033E00007E00021B64A019811540198401CC0B270
:1033F000019001981928F4DB0A98401CC0B20A9089
:103400000A98042800DA8EE40B9803F035F80B983C
:10341000401CC0B20B900B98042800DA3BE41D213D
:1034200038A881740D21C174122110A8FEF7CCFDBB
:103430001420FEF7F7FE0020069010E00A210698FF
:10344000484314A9023140180A210590FEF7BCFD3B
:103450001420FEF7E7FE0698401CC0B206900698BE
:103460001028EBDB02213CA80230FEF7ADFD002165
:103470009848C162816200209649486208620690BD
:1034800007E0002110AA069811540698401CC0B20B
:1034900006900698B428F4DB002006900AE000218C
:1034A000874A069811548C4A069811540698401C75
:1034B000C0B2069006981928F1DB02F0CFF814E2AA
:1034C000282134A8FCF78FFF0020339082484078F1
:1034D0001D2803D1804880780D2810D002F046F9CD
:1034E0000020329007E000217B4A32981154329834
:1034F000401CC0B2329032981928F4DBDFE703F0A9
:1035000015FB2622754934A801F0A0F86420FEF7C7
:1035100089FE162130A8017324214173022133A8AA
:10352000FEF752FD02F09AF8C9E700203D903B906B
:103530003C90694840781D2803D1674880780D2861
:1035400010D002F013F900203D9007E00021624AFC
:103550003D9811543D98401CC0B23D903D981928AB
:10356000F4DBECE303F0E2FA7D20C000FEF75AFE44
:10357000172138A801735A4800887D21C9003A9064
:10358000FCF774FF3030C1B238A841732E2181732B
:10359000534800887D21C9003990FCF767FF3A91B4
:1035A00064213A98FCF762FF3030C1B238A8C17389
:1035B0004B48008864213990FCF758FF3A910A2162
:1035C0003A98FCF753FF3030C1B238A80174562145
:1035D00041742421817407213BA8FEF7F5FC02F019
:1035E0003DF8ACE3ABE3AAE300203D90502129A8CD
:1035F000FCF7F9FE00202890374840781D2803D1B9
:10360000354880780D2810D000203D9007E000213B
:10361000314A3D9811543D98401CC0B23D903D98B0
:103620001928F4DB02F0A2F889E303F07FFA7D2089
:10363000C000FEF7F7FD2B480078C007C00F002838
:103640001DD02F2129AA289811542898401CC0B2B7
:1036500028905021289811542898401CC0B22890D6
:103660004F21289811542898401CC0B22890572107
:10367000289811542898401CC0B228907FE019481F
:10368000007802210840002832D02F2129AA28984A
:1036900011542898401CC0B22890522128981154E7
:1036A0002898401CC0B2289054212898115428987A
:1036B000401CC0B22890432128981154289813E048
:1036C00018000020A0860100102700004552522D4E
:1036D0002D313700804200503C00002000E07F0088
:1036E0004C01002070000020401CC0B2289046E031
:1036F000F74800780421084000281DD02F2129AA6E
:10370000289811542898401CC0B228904621289827
:1037100011542898401CC0B228904C21289811546C
:103720002898401CC0B2289041212898115428980C
:10373000401CC0B2289022E0E548007808210840EB
:1037400000281CD02F2129AA289811542898401C01
:10375000C0B228904221289811542898401CC0B229
:1037600028904C21289811542898401CC0B22890C9
:103770005421289811542898401CC0B22890002049
:103780003D9035E001203D998840D24909880840A4
:10379000002829D02F2129AA289811542898401CA4
:1037A000C0B228905321289811542898401CC0B2C8
:1037B00028900A213D98401CFCF758FE3030C1B2D9
:1037C00029AA289811542898401CC0B228900A2190
:1037D0003D98401CFCF74AFE303129AA2898115424
:1037E0002898401CC0B228903D98401CC0B23D9023
:1037F0003D981028C6DB2898012804DD29A82899BF
:10380000FEF7E2FB08E0302128A801712421417174
:10381000022129A8FEF7D8FB00203D9007E00021F7
:10382000AD4A3D9811543D98401CC0B23D903D9822
:103830001928F4DB01F012FF81E200203D903C905A
:10384000A548407A1D2803D1A348807A0D2810D0BE
:1038500000203D9007E000219F4A3D9811543D987B
:10386000401CC0B23D903D981928F4DB01F07EFF6A
:1038700065E203F05BF97D20C000FEF7D3FC9648BB
:10388000401C02F063FE312138A8017424214174E8
:1038900002213CA8FEF798FBFF20F530FEF7C2FCA2
:1038A0008D48006A3B90804702F0BCFE01F0D6FED6
:1038B00045E200203D903B903C90874840781D2891
:1038C00003D1854880780D2810D000203D9007E076
:1038D0000021814A3D9811543D98401CC0B23D9052
:1038E0003D981928F4DB01F041FF28E203F01EF9AE
:1038F0007D20C000FEF796FC322138A80173062215
:1039000076490D3000F0A2FE6420FEF78BFC2421E6
:1039100038A8C17408213BA8FEF756FB00203D9053
:1039200007E000216C4A3D9811543D98401CC0B2FC
:103930003D903D981928F4DB01F090FEFFE1002056
:103940003D903C90644800791D2803D1624840793D
:103950000D2810D000203D9007E000215E4A3D98E0
:1039600011543D98401CC0B23D903D981928F4DB9D
:1039700001F0FCFEE3E103F0D9F87D20C000FEF782
:1039800051FC5548401C02F0A3FF20225349891DD9
:10399000534800F05BFE00203D9007E000214E4AB6
:1039A0003D9811543D98401CC0B23D903D98192857
:1039B000F4DB412138A801742421417402213CA880
:1039C000FEF702FB01F04AFEB9E146A103C93D91B1
:1039D0003C9000203B903A903F4840781D2803D10E
:1039E0003D4880780D2802D001F0C0FEA7E103F029
:1039F0009DF8002002F05CFD012002F059FD02203C
:103A000002F056FD032002F053FDC820FEF70AFC29
:103A100000203B9018E03B9803F096F86420FEF7F6
:103A200001FC802138A801747421017500202F4900
:103A3000487605213CA801F055FA00202B4948762C
:103A40003B98401CC0B23B903B981028E3DB002021
:103A500039900AE00021254A399811541E4A3A98B3
:103A600011543998401CC0B2399039981928F1DBAB
:103A700001F0F4FD63E1184840781D2803D1164891
:103A800080780D2803D001F071FE58E153E003F077
:103A90004DF8002002F0F0FC012002F0EDFC0220C5
:103AA00002F0EAFC032002F0E7FCFF20F530FEF70D
:103AB000B9FB01F0D3FD42E1074840781D2803D14E
:103AC000054880780D2813D001F050FE37E1000042
:103AD00070000020720000203C00002000E07F0009
:103AE000600100208006050174000000180000201D
:103AF00003F01CF801209C498863FF20F530FEF795
:103B000091FB01F0ABFD1AE1984840781D2803D1E4
:103B1000964880780D2802D001F028FE0FE103F0CE
:103B200005F8002090498863FF20F530FEF77AFB06
:103B300001F094FD03E18E4903C93D913C900020C2
:103B40003B903A90002139913890884880781D2820
:103B500007D18648C0780D2803D1844840781028C2
:103B600010DD01F003FE00203B9007E000217F4ABA
:103B70003B9811543B98401CC0B23B903B9819288D
:103B8000F4DBDCE002F0D2FF784841783991012281
:103B9000110339A800F0E0FD74484078FF21F531A9
:103BA0004843C830734908807048417838A8C174C8
:103BB0006E484078F321081AC1B238A80175002078
:103BC00002F076FC012002F073FC022002F070FC8F
:103BD000032002F06DFC00203B907DE06648006809
:103BE00001210843644908603B9802F0ADFF64205E
:103BF000FEF718FB6148006A3690804705213CA813
:103C000001F070F9C820FEF70DFB002038903BE072
:103C100000F0C2FC5948807E01282ED1002057496F
:103C200088760846407E042816D100203690012070
:103C30004D49403188610A20FEF7F4FA00204A49D4
:103C40004031886130A93B980876002048760221EF
:103C500036A8FEF7B9F90FE04848407E05280BD199
:103C60000020369030A93B980876F0204876022153
:103C700036A8FEF7A9F900BF09E03898401CC0B289
:103C800038901E20FEF7CEFA38986428C0DB00BFBB
:103C9000389864280BDB0020369030A93B980876D2
:103CA000F1204876022136A8FEF78EF900BF0020E9
:103CB0003A9007E00021314A3A9811543A98401C52
:103CC000C0B23A903A981928F4DB00202B49487684
:103CD0003B98401CC0B23B903B98102800DA7DE72F
:103CE00000203790602130A80177242141770221FC
:103CF00037A8FEF769F900203A900AE000211F4A30
:103D00003A981154194A3A9811543A98401CC0B242
:103D10003A903A981928F1DB002002F0ADFB01201F
:103D200002F0AAFB022002F0A7FB032002F0A4FB92
:103D3000FF20F530FEF776FA01F090FC00BF00BFDF
:103D400000203D900AE000210C4A3D981154074A9A
:103D50003D9811543D98401CC0B23D903D981928A3
:103D6000F1DB3FB000BD0000804200503C0000206D
:103D7000346E000060000020004000401800002069
:103D80001948006AFF2101310840002808D0084680
:103D9000154908620120154908701549087022E08C
:103DA00011484030006A01218903084000280AD0E8
:103DB00008460D494031086200200C490870012076
:103DC0000B4908700FE00848006A07490862064876
:103DD0004030006A04494031086203488030006A7C
:103DE000014980310862704700400050680000209F
:103DF00069000020826901238B409A438261C36974
:103E0000024A8A409343C3617047000001000100E9
:103E100010B58469130E8B401C438461C36914027E
:103E2000240A8C402343C36110BD000010B500225A
:103E3000FF2101315D4800F0EDF85C48406AFF2148
:103E4000013188435949486201225103574800F023
:103E5000E1F801221103554800F0DCF8012240216D
:103E60005248403000F0D6F8012280214F484030BF
:103E700000F0D0F8012251024C4800F0CBF80122AA
:103E8000D1024A48803000F0C5F80122910247482B
:103E9000803000F0BFF8012251024448803000F029
:103EA000B9F8012211024148803000F0B3F8012234
:103EB00040213E4800F0AEF8012280213B4880308E
:103EC00000F0A8F8012240213848803000F0A2F824
:103ED0000122D1033548803000F09CF800220121F6
:103EE00089033248403000F095F830484030406A4D
:103EF0000121890388432D49403148620122402134
:103F00002A48C03000F086F801229103274880300B
:103F100000F080F8012280212448C03000F07AF8B7
:103F2000012291032148C03000F074F801222021C1
:103F30001F4800F06FF80122D1021C48403000F009
:103F400069F8012291021948403000F063F801221B
:103F500051021648403000F05DF8002015494862D3
:103F6000144980318863C8628862486208621249D5
:103F7000486110494031C862886248620D49803109
:103F8000C8638861C8610B498861012009494031D3
:103F9000C86100F013F80120064948630863002057
:103FA0000549403988618863C86110BD00400050F0
:103FB00000410050004200500043005010B508215D
:103FC0000748FFF717FF042000F028F90E210448E6
:103FD0004030FFF70FFF042000F020F910BD000073
:103FE0000040005010B50122120408210848FFF7D4
:103FF0000FFF042000F026F9012212040E210448CC
:104000004030FFF705FF042000F01CF910BD000050
:104010000040005070B5034600200FE001248440AA
:104020000C40002C09D01C6846000325B540AC4369
:1040300046001546B5402C431C60401C1028EDD3AB
:1040400070BD0000044604A0FCF7EEF8204602F024
:1040500019FD00BFFEE70000496E20486172642030
:104060004661756C742048616E646C65720A00006C
:1040700030B58BB00446142106A8FCF7B4F914211E
:1040800001A8FCF7B0F901204A49486200204A49DA
:10409000486148494031C86288624862FF20F53073
:1040A000FEF7C0F801214548FDF77AFA4348403051
:1040B00080680121C902084340494031886000BF3F
:1040C0003F4800780028FBD000203D4908700025BB
:1040D00042E001213948FDF763FA384840308068F2
:1040E0000121C902084335494031886000BF344886
:1040F00000780028FBD00020314908702F4906982D
:1041000049690905090D401806902C490798096965
:104110000905090D4018079028490898C96809053C
:10412000090D401808902549099889680905090D65
:104130004018099021490A9849680905090D401855
:104140000A901E48403080680121C90288431B49FB
:1041500040318860681CC5B20A2DBADB069841015F
:1041600040180001000C2080079841014018000110
:10417000000C60800898410140180001000CA080EC
:104180000998410140180001000CE0800A984101A3
:1041900040180001000C20810020064948620120DF
:1041A0000549486103494031C8628862486200207D
:1041B0000BB030BD004200500043005000000E40E4
:1041C0006200002000B500F083F903488069772180
:1041D00008430149886100BD4000005008B50D4802
:1041E00008230422002100900B4800F049FB0A48F4
:1041F000006801218902884307490860084600F0E9
:10420000E5F90548006801218905884302490860ED
:1042100008BD000040420F0000001340C206D20E4D
:1042200001219140014A11607047000080E100E0E7
:10423000C206D20E01219140014A11607047000070
:1042400080E100E0C206D20E01219140014A1160D6
:104250007047000000E100E0C206D20E012191404B
:10426000014A11607047000000E100E000B5012044
:1042700002490863FFF7A6FF00BD000000020050DE
:1042800009490A4A516002E00749084A5160074952
:1042900049680122120411400029F5D00349896AB6
:1042A0000143024A9162704765A900000080004006
:1042B0001648806A02210840002808D01348C06AC6
:1042C0000840002803D002201049C862C8620F4885
:1042D000806AC007C00F002808D00C48C06AC00719
:1042E000C00F002802D001200849C8620748806A30
:1042F00004210840002807D00448C06A084000286C
:1043000002D004200149C8627047000000800040CC
:1043100038B504467D20C00000905C485C490860C8
:1043200008460068012806D05848086000BF584871
:1043300000680128FBD1002C00D138BDE0690028BD
:104340001AD154485249486002E0524850494860E6
:104350004F4840680121090408400028F5D04C4826
:104360004069400840004A494861206A022817D144
:1043700020691430206113E046484549486002E056
:1043800044484349486042484068012109040840C4
:104390000028F5D03E484069012108433C49486166
:1043A0007D2212012168881A0A21FCF755F80505BB
:1043B0007D2212012168881A0A21FCF74DF80804B1
:1043C00005430A216068FCF747F8000305430A210A
:1043D0006068FCF741F8080205430A21A068FCF771
:1043E0003BF8000105430A21A068FCF735F80D43AE
:1043F0002948056027482649486000BF244840688E
:104400000121090408400028F8D023480068204909
:1044100008610A212069FCF71FF805050A212069B7
:10442000FCF71AF8080405430A216069FCF714F840
:10443000000305430A216069FCF70EF808020543F2
:104440000A21A069FCF708F8000105430A21A069C8
:10445000FCF702F80D43104805600E480C4948600F
:1044600000BF0B4840680121090408400028F8D02B
:10447000094800680649C860E068886100BF009884
:10448000411E00910028FAD100BF56E75713EBA553
:104490000080004065A90000840000200A490B4A02
:1044A000516002E00849094A5160084949680122FF
:1044B000120411400029F5D00449096BC908C9004C
:1044C0000143024A1163704765A900000080004063
:1044D000204800680521090708631E4840684863B2
:1044E0001C48806888631B48C068C8631948006915
:1044F0001949086017484069486016488069886013
:104500001448C069C8601348006A08611148406ACD
:1045100048611048806A8861104800681049486204
:104520000E4840680E49403148620C4880680C498A
:10453000803148620948C0680949C031486207486B
:1045400000690849486205484069064940314862A7
:104550007047000008010020400000503401002096
:10456000004000500041005010B50C20FFF760FEE5
:10457000002404E0002007490855601CC4B2192C2F
:10458000F8DB0C20FFF768FE0020024988764876A9
:1045900010BD0000180000200B48807F01280BD1BF
:1045A0000949C8770846808B0A280CDD00208883DB
:1045B00088770120887606E00348C07F012802D171
:1045C00000200149C877704718000020C168082200
:1045D0009143C1607047000070B505460C46164611
:1045E00000F0A6F81848C0680D218843401C164901
:1045F000C860022000F056F9FF2109042140080C90
:1046000000F050F9FF2109022140080A00F04AF9A0
:10461000E0B200F047F9FF200130864200DD064697
:1046200003E0287800F03EF96D1C3046711E8EB212
:104630000028F6D10448C0680D2188430249C860AB
:1046400000F062F870BD00000000134070B5054630
:104650000C4616461548C0680D218843401C134976
:10466000C860032000F01EF9FF2109042140080C56
:1046700000F018F9FF2109022140080A00F012F9A0
:10468000E0B200F00FF904E0FF2000F00BF9287011
:104690006D1C3046711E8EB20028F5D10348C068EB
:1046A0000D2188430149C86070BD0000000013401F
:1046B00070B50024002500261248C0680D218843EB
:1046C000401C1049C860902000F0ECF8002000F079
:1046D000E9F8002000F0E6F8002000F0E3F8FF2001
:1046E00000F0E0F80546FF2000F0DCF8064605483B
:1046F000C0680D2188430349C8602802304304463E
:10470000204670BD0000134010B50848C0680D2158
:104710008843401C0549C860052000F0C3F80348E1
:10472000C0680D2188430149C86010BD00001340D6
:1047300010B50848C0680D218843401C0549C86071
:10474000062000F0AFF80348C0680D2188430149F6
:10475000C86010BD00001340F0B585B007460E4696
:104760001446002003900290019000250090F0B2C2
:104770000190FF2101310198081AC5B22046E117C6
:10478000090E09180904090E0391E117090E091809
:1047900009120902611AC9B20291019800281FD1B9
:1047A0000398002805D1224631463846FFF714FF0A
:1047B00064E009E0FF22013231463846FFF70CFF82
:1047C000FF360136FF3701370398411EC9B2039106
:1047D0000028EFD131463846029AFFF7FDFE4DE042
:1047E0000398002819D10298A84210DD0298401BB6
:1047F000C0B200902A4631463846FFF7EDFE7619E2
:104800007F1931463846009AFFF7E6FE36E0224629
:1048100031463846FFF7E0FE30E0601B84B22046A8
:10482000E117090E09180904090E0391E117090E91
:10483000091809120902611AC9B202912A463146C1
:104840003846FFF7C9FE76197F1909E0FF220132C9
:1048500031463846FFF7C0FEFF360136FF370137D5
:104860000398411EC9B203910028EFD10298002895
:1048700004D031463846029AFFF7AEFE05B0F0BDCF
:10488000F8B505460E4617461C46202C00D10024DC
:10489000E0003043384328602846069900F01CF8B1
:1048A000F8BD00000146F0200A4A11621268012397
:1048B0001A43084B1A6000BF064A1268D207D20F8B
:1048C00001235A405A40002AF6D1024A1269D0B256
:1048D0007047000000001340F8B505460E4600275B
:1048E000254885420ED125488069012109050840E7
:1048F000884203D1FDF7ACFB044623E0FDF7B0FB93
:1049000004461FE01E4885420ED11C4880690121E3
:1049100049050840884203D1FDF79AFB044611E09F
:10492000FDF79EFB04460DE01448806901218905CE
:104930000840884203D1FDF78BFB044602E0FDF7F7
:104940008FFB0446A64200D92646002E08D03146E9
:104950002046FBF781FD471EFF2F02D9FF2700E00D
:104960000027A868000A00023843A860791C204686
:10497000FBF772FDF8BD000000000340000200508C
:104980000000134010B500BF06E0592050490860F0
:1049900016200860882008604D4800680128F4D17E
:1049A00000BFFDF72FFB0220FDF72CFB0120FDF7D8
:1049B00025FC0220FDF722FC00210846FDF7A0FBA4
:1049C0004448FDF70DFB07204007FDF709FB414870
:1049D000401CFDF705FB4048FDF702FB3F48FDF793
:1049E000FFFA3F48FDF7FCFA3E48FDF7F9FA3E486A
:1049F000FDF7F6FA0022114607204007FDF7B2FB4B
:104A0000002211463348FDF7ADFB00221146314824
:104A1000401CFDF7A7FB0022012149052E48FDF7A8
:104A2000A1FB002211462E48FDF79CFB00221146F7
:104A30002C48FDF797FB00F0C9FA05200007806BB2
:104A40007721090488430521090788630846806B9C
:104A50001121090408430521090788630846406BB2
:104A60007721090688430521090748630846406BFA
:104A70003321490608430521090748630846806B2E
:104A80001A4908400521090788630846806B1849C0
:104A900008430521090788630846006B154908404B
:104AA0000521090708630846006B134908430521DF
:104AB00009070863114840681F21490408430F494A
:104AC000486000BF00200249086000BF10BD000020
:104AD00000010050103D00A60D0050C31CFE23A68F
:104AE000023D84AE833DC4AE010000E08888FFFF34
:104AF000333300008F8888FF1011110000400050F0
:104B000005200007006B1D49086005200007406B69
:104B1000486005200007806B886005200007C06B97
:104B2000C860174800680861154840684861144823
:104B3000806888611248C068C861114800690862CD
:104B40000F48406948620E48806988620D48406A93
:104B50000D4908600B484030406A48600948803081
:104B6000406A88600748C030406AC8600748406AA9
:104B7000086106484030406A4861704708010020DB
:104B8000400000500040005034010020004100501F
:104B9000F0B589B0142104A8FBF725FC0026BCA0C1
:104BA0000068039000270020BA490880BA490870BD
:104BB000002102910122110302A8FFF747FD6420A2
:104BC000FDF730FB6846007A0A280CDA6846007A5E
:104BD000002808DD6846007AFF21F5314843401877
:104BE000AE49088002E0AE48AC4908802022AD49B9
:104BF000AD48FFF72BFD0822AC49AD48FFF726FD75
:104C00006420FDF70FFB04A8FCF758FDA9490498A0
:104C1000884203D8A8490498884204D29E48007864
:104C2000401C9D4908709C48007800280DDC0A2033
:104C3000FDF7F8FAFFF73CFD0746A048874204D08D
:104C400095480078001D9449087093480078002822
:104C50007EDC002400259AA00068019000BF8DE052
:104C6000002C07D1002001F023FC19204001FDF7A2
:104C7000D9FA25E0042C0AD1002001F0FDFB012027
:104C800001F016FC19204001FDF7CCFA18E0082CC1
:104C90000AD1012001F0F0FB022001F009FC1920EB
:104CA0004001FDF7BFFA0BE00C2C09D1022001F006
:104CB000E3FB032001F0FCFB19204001FDF7B2FAF1
:104CC000E0B201F041FF0A20FDF7ACFA802168460E
:104CD00001717121C1717B49086A8047042101A8D3
:104CE00000F000F9C820FDF79DFA002526E0FFF747
:104CF00053FC7448807E012808D17248407E052804
:104D000017D100206F49487600251BE0002D10D0F8
:104D1000FF212D312846FBF7A9FB002909D169495C
:104D2000086A8047042101A800F0DCF86420FDF740
:104D300079FA681C85B20A20FDF774FAE120800038
:104D40008542D4DD00BF00205E494876887600E0C9
:104D500024E0E1208000854207DC08468078852831
:104D60000AD10846C078002806D00120A040494951
:104D70000988401847490880601C84B2102C00DA6A
:104D80006EE7032001F078FB002404E000204D4989
:104D90000855601C84B2192CF8DB00BF3E4800782F
:104DA00000283DDC0020484988616420FDF73AFA7C
:104DB0000120454988617D20C000FDF733FA434951
:104DC000086A804700204049C861FF20F530FDF7A0
:104DD00029FA042103A8FDF7F7F8FF202D30FDF78D
:104DE00021FA10E03A480078012803D10020384920
:104DF00008700AE0042103A8FDF7E6F8C820FDF7D3
:104E000011FA701CC6B20F2EECDB00BF01202E4938
:104E1000C8610F2E04DB2048007808301E49087056
:104E2000202220492048FFF711FC6420FDF7FAF901
:104E300018480088002803DC1748007800280CDD9B
:104E400001202149803188617D20C000FDF7EAF909
:104E500000201D498031886118E001201A49803105
:104E600088616420FDF7DEF90020174980318861F0
:104E70006420FDF7D7F9012013498031886164204F
:104E8000FDF7D0F9002010498031886109B0F0BDEC
:104E900041540D0A720000207000002060000020C4
:104EA000C409000006E07F006001002000D07F0000
:104EB0007400002094110000480D000016EF00005F
:104EC0005006094718000020404200503C000020D6
:104ED0001400002000B50146084600F001F800BDAE
:104EE0007047000070B504460D462A462146024828
:104EF00000F0C4FA70BD00000000054070B5104815
:104F0000006945076D0F002D01D10E4C0EE0012DFB
:104F100001D1EC030AE0022D03D100F017F804469A
:104F200004E0032D01D1084C00E0064C0448C069A0
:104F30000007000F461C31462046FBF78DFA70BD76
:104F400000020050001BB70010270000FEB5002033
:104F500002901C48456AC0012840002801D000206A
:104F6000FEBD012040042840002801D0164F00E07B
:104F7000154F012000032840002801D0022000E046
:104F800001200190032000022840060A002E01D1D2
:104F9000022408E0012E01D1042404E0022E01D1F4
:104FA000082400E01024A906890E20317943084620
:104FB0002146FBF751FA00900199FBF74DFA029058
:104FC0000298CDE700020050001BB70010B5FFF7B4
:104FD00095FF064908600649044800684A10801891
:104FE000FBF73AFA0349086010BD000000000020FA
:104FF00040420F00040000203FB50246184D39CD55
:10500000694639C11748824206D1174840690723CB
:105010001B021840010A19E01448824206D11248C6
:10502000406907231B031840010B0FE01048824220
:1050300006D10D48806907231B021840010A05E0CC
:105040000948806907231B031840010B042904D277
:1050500088006B46185804B030BD0648FBE70000D6
:10506000586E0000000001400002005000010140A5
:1050700000001140001BB700FEB505460F4616465E
:105080002846FFF7B9FF0446002001900090600811
:10509000B04202D20220019013E001204006844277
:1050A00003D303200090A40806E0012000068442F8
:1050B00002D301200090640831462046FBF7CCF96A
:1050C00001900198A860009868602F60009A521CB7
:1050D0000198504301462046FBF7BEF9FEBD000093
:1050E00000B500BF01201049086100BFFCF70CFFAC
:1050F0000E48808B0E49884202DD00200B498883D0
:105100000C48808B0A49884202DD002009498883C7
:105110000648808B401C054988830648808B401CCC
:105120000449888300BD00000000014018000020F1
:1051300060EA00003C00002010B500BF01203649A5
:10514000086100BF322135480088FBF78FF900293C
:105150001AD13348007808210840002804D031488B
:10516000C069C0432F49C8612F480088FF21F5312D
:10517000884209DD2D4800682D49884204D229481B
:10518000806BC0432749886324480088401C23491A
:105190000880084600882749884202DB00201F4912
:1051A000088021480088FF21F531884222DA1E4814
:1051B0000088401C1C49088032211F480078FBF7FA
:1051C00055F9002910D100201B49087017480068C4
:1051D0001749884203D901201249886304E0114825
:1051E000806BC0430F49886313480078401C124904
:1051F000087010E00C480088FF21F53188420AD180
:1052000000200849C86188630C4908700648008876
:10521000401C0549088010BD000101400800002025
:1052200070000020C04200500A0000204C01002005
:10523000480D000060EA00000C000020680000201B
:1052400010B57D22D20010210B48FFF715FF00BFDB
:105250000948C068012108430749C86000BF082009
:10526000FEF7FAFF00BF0448006801210843024925
:10527000086000BF10BD00000000014010B56422AE
:1052800010210B48FFF7F8FE00BF0948C068012154
:1052900008430749C86000BF0920FEF7D3FF00BFDD
:1052A00003480068012108430149086000BF10BDA0
:1052B00000010140FF21134A1069C207D20F002AE2
:1052C0001ED017E00022104B9A839A7601229A771B
:1052D0001A46527E521C5A761A46527E192A01DB11
:1052E00019225A76074A1268D1B2074A527E521ED4
:1052F000054B9954034A926902231A40002AE1D0CF
:1053000070470000000005401800002000B5FFF7BE
:10531000D1FF00BD10B50948094908624B21C901F8
:10532000084800F05BF80748C068112108430549A8
:10533000C8600C20FEF790FF10BD0000694500001A
:105340001800002000000540FF21134A1069C20721
:10535000D20F002A1FD018E00022104B9A8301229E
:105360009A771A46527E521C5A7600229A761A462C
:10537000527E192A01DB19225A76074A1268D1B2E5
:10538000064A527E521E054B9954034A92690223E3
:105390001A40002AE0D07047000015403C00002071
:1053A00000B5FFF7D1FF00BD10B5094809490862F3
:1053B000E1214902084800F011F80748C0681121AE
:1053C00008430549C8600D20FEF746FF10BD0000E8
:1053D000D91E00003C00002000001540F0B587B049
:1053E00004460D46224801460EC9C06802AE0EC6EC
:1053F0000590204840698007800F0690069880003D
:1054000002A90F581B48C0690F2109020840000A71
:10541000401C0190002F07D1FFF798FD00900199E3
:10542000FBF71AF8074604E038460199FBF714F831
:1054300007460020A0630320A060002D15D0690856
:10544000C8192946FBF708F8461E0B4886420BD9B7
:10545000E900C8192946FAF7FFFF0009401E01219B
:10546000C9070843606200E0666207B0F0BD000053
:10547000686E000000020050FFFF000070B5034698
:105480000C46002111E0002506E06D1C012080077C
:10549000854201D3002070BD986901267602304014
:1054A0000028F2D0605C1860491C9142EBD108469C
:1054B000F1E7000010B504462403FFF739F9FFF7C0
:1054C00023F90F48C0680D218843401C0C49C8606F
:1054D0002020FFF7E7F92102080EFFF7E3F9210486
:1054E000080EFFF7DFF9E0B2FFF7DCF90448C06807
:1054F0000D2188430249C860FFF706F910BD00007E
:105500000000134030B47446641E2578641CAB421E
:1055100004D3635D5B00E31830BC18471D46F8E711
:105520004900CA020243100000D004204A0D01D0F5
:1055300001221043044A490D914201D1022108433E
:10554000012800D105207047FF070000F8B5044688
:105550004F1EC8000838211815461E4608684968BD
:105560003A4606239A4310D02A463346FBF782FC7C
:105570003A46D200083AA3181A687F1E5B68FBF708
:10558000D5F906223B469343EED1022F23D0042FB8
:1055900011D0062F2FD12A463346FBF76BFCE36A66
:1055A000A26AFBF7C3F92A463346FBF763FC636A3A
:1055B000226AFBF7BBF92A463346FBF75BFCE3693B
:1055C000A269FBF7B3F92A463346FBF753FC63693C
:1055D0002269FBF7ABF92A463346FBF74BFCE3683D
:1055E000A268FBF7A3F92A463346FBF743FC63683E
:1055F0002268FBF79BF9F8BD002210B51346104650
:105600000149FBF7C3F910BD0000F03F10B5FBF7EF
:105610008DF910BD002210B5134610461146FBF758
:10562000B5F910BD10B50721024A00200907FBF7A4
:1056300047FE10BD01030000034A10B5002011070A
:10564000FBF73EFE10BD000001FDFFFF30380A28C9
:1056500001D20120704700207047000010B50120E2
:105660000A4988616420FCF7DDFD00200749886154
:105670006420FCF7D7FD0120044988616420FCF711
:10568000D1FD00200149886110BD0000C0420050DA
:1056900010B5FFF735FA05200007006B0020052143
:1056A000090708630846406B0007000F4863084677
:1056B000806B002088630846C06B0F2109060840F4
:1056C00005210907C86325480068002023490860B0
:1056D00008464068002048600846806800208860CE
:1056E0000846C0680020C8600846006900200861BC
:1056F0000846406900204861084680697721090210
:1057000008401649886100201549486214498031D3
:105710008863C86288624862086201201149486152
:105720000F494031C862886248620F488068012191
:10573000890688430C4988600846006802210843AE
:1057400009490860084600682021084306490860A6
:105750001C20FEF777FDFCF7C3FC10BD4000005095
:1057600000420050004300500002005010B50120DC
:1057700011498861FF202D30FCF754FD00200E49AF
:1057800088616420FCF74EFD01200B498861FF20F1
:105790002D30FCF747FD0020074988616420FCF7A5
:1057A00041FD012004498861FF202D30FCF73AFDBE
:1057B00000200149886110BDC04200500146002010
:1057C000C043704700B502460B461046FFF782FB08
:1057D000104600BD8AB0FFF7D5F8FEF727FBFEF7AD
:1057E000FDFCFBF715FFFFF72BFDFFF747FDFFF76C
:1057F000DBFDFFF78FFD00BF06E059207A49086006
:105800001620086088200860774800680128F4D1D5
:1058100000BF7648019002200290072003900020EC
:105820000590069007900220049001200890FEF752
:105830003FFF08226E496F48FEF708FF6E48FBF7EE
:105840003DFF7D20C000FCF7EDFC01A8FEF760FDE8
:105850000120FEF723FE0220FEF712FD1F2001218A
:105860008140664A116000BF6548006B082108430B
:1058700063490863FFF78CF96249086A804700BFF3
:1058800061480088FF21F5318842F9DD5D49086AE9
:105890008047FEF7A7FB092001218140574A80324B
:1058A000116000BF00BF5948C06840084000574918
:1058B000C86000BF96E05648007801280AD15149D7
:1058C000086A80475349086A804700205049087099
:1058D000FFF7C4FE50480078012843D14948807E34
:1058E000012829D14D48007801280FD14548FCF7FF
:1058F000A3FC0020494908704249086A804745498D
:10590000086A804700204649088015E0454800782D
:10591000012809D10020434908703A49086A8047A4
:105920003C49086A804707E0FFF720FF3549086ACD
:1059300080473849086A8047FF20F530FCF772FC41
:1059400037480088401C3649088008460088364998
:10595000098888421ADD00202F4908700120334948
:10596000087013E000202E49088030480078012894
:105970000AD100202D4908702D4988616420FCF768
:1059800051FC01202A498861FFF782FE29480068FE
:105990000121084327490860174800F011FD164807
:1059A00000682549884207D221488030806BC04377
:1059B0001F498031886308E00F4800681E4988420B
:1059C00003D900201A49803188631C4800780821D7
:1059D0000840002806D016488030C069C0431449EA
:1059E0008031C86167E7000000010050E107000056
:1059F00000D07F00740000204C01002000E100E096
:105A0000008000403C0000200A000020000101400E
:105A10006900002018000020680000201600002007
:105A20006600002015000020640000206A000020AD
:105A30004042005000400040740E00007000002002
:105A4000F0B51FB494B084460C460246179F1698D2
:105A50000290490078006300490840080493002A36
:105A600001D0012500E00025FE4A5D19AD18531054
:105A70009D422CD37D00029E0195002E00D0012670
:105A8000AE19F94BB5189D4221D3029B0246F74D42
:105A90001A430BD02A46944202D16246002A05D00E
:105AA0006246049B002A05D0012504E00020294617
:105AB00019B0F0BD00255D19ED4B9D4207D8029E3F
:105AC000019D002E00D00126AD199D4207D93B460D
:105AD00060462146169AFFF799FD19B0F0BD0025E2
